{
  "contractName": "SimpleVoting",
  "abi": [
    {
      "inputs": [
        {
          "internalType": "uint256",
          "name": "_durataOre",
          "type": "uint256"
        }
      ],
      "stateMutability": "nonpayable",
      "type": "constructor"
    },
    {
      "anonymous": false,
      "inputs": [
        {
          "indexed": false,
          "internalType": "address",
          "name": "elettore",
          "type": "address"
        }
      ],
      "name": "EletoreRegistrato",
      "type": "event"
    },
    {
      "anonymous": false,
      "inputs": [
        {
          "indexed": false,
          "internalType": "uint256",
          "name": "idProposta",
          "type": "uint256"
        },
        {
          "indexed": false,
          "internalType": "string",
          "name": "descrizione",
          "type": "string"
        }
      ],
      "name": "PropostaAggiunta",
      "type": "event"
    },
    {
      "anonymous": false,
      "inputs": [
        {
          "indexed": false,
          "internalType": "uint256",
          "name": "idProposta",
          "type": "uint256"
        }
      ],
      "name": "PropostaEseguita",
      "type": "event"
    },
    {
      "anonymous": false,
      "inputs": [
        {
          "indexed": false,
          "internalType": "address",
          "name": "elettore",
          "type": "address"
        },
        {
          "indexed": false,
          "internalType": "uint256",
          "name": "idProposta",
          "type": "uint256"
        }
      ],
      "name": "VotoEffettuato",
      "type": "event"
    },
    {
      "inputs": [],
      "name": "durataVotazioni",
      "outputs": [
        {
          "internalType": "uint256",
          "name": "",
          "type": "uint256"
        }
      ],
      "stateMutability": "view",
      "type": "function",
      "constant": true
    },
    {
      "inputs": [
        {
          "internalType": "address",
          "name": "",
          "type": "address"
        }
      ],
      "name": "elettori",
      "outputs": [
        {
          "internalType": "bool",
          "name": "iscritto",
          "type": "bool"
        },
        {
          "internalType": "uint256",
          "name": "peso",
          "type": "uint256"
        }
      ],
      "stateMutability": "view",
      "type": "function",
      "constant": true
    },
    {
      "inputs": [],
      "name": "inizioVotazioni",
      "outputs": [
        {
          "internalType": "uint256",
          "name": "",
          "type": "uint256"
        }
      ],
      "stateMutability": "view",
      "type": "function",
      "constant": true
    },
    {
      "inputs": [],
      "name": "presidente",
      "outputs": [
        {
          "internalType": "address",
          "name": "",
          "type": "address"
        }
      ],
      "stateMutability": "view",
      "type": "function",
      "constant": true
    },
    {
      "inputs": [
        {
          "internalType": "uint256",
          "name": "",
          "type": "uint256"
        }
      ],
      "name": "proposte",
      "outputs": [
        {
          "internalType": "uint256",
          "name": "id",
          "type": "uint256"
        },
        {
          "internalType": "string",
          "name": "descrizione",
          "type": "string"
        },
        {
          "internalType": "uint256",
          "name": "votiTotali",
          "type": "uint256"
        },
        {
          "internalType": "bool",
          "name": "eseguita",
          "type": "bool"
        }
      ],
      "stateMutability": "view",
      "type": "function",
      "constant": true
    },
    {
      "inputs": [],
      "name": "votoFinito",
      "outputs": [
        {
          "internalType": "bool",
          "name": "",
          "type": "bool"
        }
      ],
      "stateMutability": "view",
      "type": "function",
      "constant": true
    },
    {
      "inputs": [
        {
          "internalType": "address",
          "name": "delegato",
          "type": "address"
        }
      ],
      "name": "delega",
      "outputs": [],
      "stateMutability": "nonpayable",
      "type": "function"
    },
    {
      "inputs": [
        {
          "internalType": "string",
          "name": "_descrizione",
          "type": "string"
        }
      ],
      "name": "aggiungiProposta",
      "outputs": [],
      "stateMutability": "nonpayable",
      "type": "function"
    },
    {
      "inputs": [
        {
          "internalType": "uint256",
          "name": "idProposta",
          "type": "uint256"
        }
      ],
      "name": "vota",
      "outputs": [],
      "stateMutability": "nonpayable",
      "type": "function"
    },
    {
      "inputs": [],
      "name": "concludiVotazioni",
      "outputs": [],
      "stateMutability": "nonpayable",
      "type": "function"
    },
    {
      "inputs": [
        {
          "internalType": "uint256",
          "name": "idProposta",
          "type": "uint256"
        }
      ],
      "name": "eseguiProposta",
      "outputs": [],
      "stateMutability": "nonpayable",
      "type": "function"
    },
    {
      "inputs": [],
      "name": "getNumeroProposte",
      "outputs": [
        {
          "internalType": "uint256",
          "name": "",
          "type": "uint256"
        }
      ],
      "stateMutability": "view",
      "type": "function",
      "constant": true
    },
    {
      "inputs": [
        {
          "internalType": "uint256",
          "name": "idProposta",
          "type": "uint256"
        }
      ],
      "name": "getDettagliProposta",
      "outputs": [
        {
          "internalType": "uint256",
          "name": "id",
          "type": "uint256"
        },
        {
          "internalType": "string",
          "name": "descrizione",
          "type": "string"
        },
        {
          "internalType": "uint256",
          "name": "votiTotali",
          "type": "uint256"
        },
        {
          "internalType": "bool",
          "name": "eseguita",
          "type": "bool"
        }
      ],
      "stateMutability": "view",
      "type": "function",
      "constant": true
    },
    {
      "inputs": [
        {
          "internalType": "address",
          "name": "elettore",
          "type": "address"
        },
        {
          "internalType": "uint256",
          "name": "idProposta",
          "type": "uint256"
        }
      ],
      "name": "haVotato",
      "outputs": [
        {
          "internalType": "bool",
          "name": "",
          "type": "bool"
        }
      ],
      "stateMutability": "view",
      "type": "function",
      "constant": true
    },
    {
      "inputs": [
        {
          "internalType": "address",
          "name": "elettore",
          "type": "address"
        }
      ],
      "name": "getProposteVotate",
      "outputs": [
        {
          "internalType": "uint256[]",
          "name": "",
          "type": "uint256[]"
        }
      ],
      "stateMutability": "view",
      "type": "function",
      "constant": true
    },
    {
      "inputs": [],
      "name": "getElencoElettori",
      "outputs": [
        {
          "internalType": "address[]",
          "name": "",
          "type": "address[]"
        }
      ],
      "stateMutability": "view",
      "type": "function",
      "constant": true
    },
    {
      "inputs": [
        {
          "internalType": "address",
          "name": "elettore",
          "type": "address"
        }
      ],
      "name": "registraElettore",
      "outputs": [],
      "stateMutability": "nonpayable",
      "type": "function"
    },
    {
      "inputs": [
        {
          "internalType": "address",
          "name": "nuovoPresidente",
          "type": "address"
        }
      ],
      "name": "cambiaPresidente",
      "outputs": [],
      "stateMutability": "nonpayable",
      "type": "function"
    }
  ],
  "bytecode": "0x60806040523480156200001157600080fd5b5060405162003228380380620032288339818101604052810190620000379190620002b5565b336000806101000a81548173ffffffffffffffffffffffffffffffffffffffff021916908373ffffffffffffffffffffffffffffffffffffffff16021790555060018060008060009054906101000a900473ffffffffffffffffffffffffffffffffffffffff1673ffffffffffffffffffffffffffffffffffffffff1673ffffffffffffffffffffffffffffffffffffffff16815260200190815260200160002060000160006101000a81548160ff02191690831515021790555060018060008060009054906101000a900473ffffffffffffffffffffffffffffffffffffffff1673ffffffffffffffffffffffffffffffffffffffff1673ffffffffffffffffffffffffffffffffffffffff16815260200190815260200160002060010181905550600660008054906101000a900473ffffffffffffffffffffffffffffffffffffffff169080600181540180825580915050600190039060005260206000200160009091909190916101000a81548173ffffffffffffffffffffffffffffffffffffffff021916908373ffffffffffffffffffffffffffffffffffffffff16021790555042600381905550610e1081620001f4919062000316565b6004819055506000600560006101000a81548160ff0219169083151502179055507f59ec4099241a7a383b8bde98428b16bdbdc3ce1b06e9338f900b29a872b6861960008054906101000a900473ffffffffffffffffffffffffffffffffffffffff16604051620002669190620003a6565b60405180910390a150620003c3565b600080fd5b6000819050919050565b6200028f816200027a565b81146200029b57600080fd5b50565b600081519050620002af8162000284565b92915050565b600060208284031215620002ce57620002cd62000275565b5b6000620002de848285016200029e565b91505092915050565b7f4e487b7100000000000000000000000000000000000000000000000000000000600052601160045260246000fd5b600062000323826200027a565b915062000330836200027a565b925082820262000340816200027a565b915082820484148315176200035a5762000359620002e7565b5b5092915050565b600073ffffffffffffffffffffffffffffffffffffffff82169050919050565b60006200038e8262000361565b9050919050565b620003a08162000381565b82525050565b6000602082019050620003bd600083018462000395565b92915050565b612e5580620003d36000396000f3fe608060405234801561001057600080fd5b50600436106101155760003560e01c80638d48f13a116100a2578063d47c946d11610071578063d47c946d146102a9578063ea025447146102d9578063ee0cb1081461030c578063f8b2592f1461032a578063f8f0c6a11461035b57610115565b80638d48f13a146102355780639aa692cf14610251578063a01d3f571461026d578063d1a4903d1461028b57610115565b80633e19095c116100e95780633e19095c146101a357806361cf6d45146101d3578063688edbe1146101dd5780636eadf4fa146101fb57806384659af81461021757610115565b8062e923441461011a57806309627179146101365780630dac038a146101695780631820caee14610185575b600080fd5b610134600480360381019061012f9190611bcf565b610377565b005b610150600480360381019061014b9190611c32565b610757565b6040516101609493929190611d19565b60405180910390f35b610183600480360381019061017e9190611c32565b61082c565b005b61018d610cbb565b60405161019a9190611d65565b60405180910390f35b6101bd60048036038101906101b89190611d80565b610cc1565b6040516101ca9190611dc0565b60405180910390f35b6101db610d82565b005b6101e5610e7d565b6040516101f29190611e99565b60405180910390f35b61021560048036038101906102109190611bcf565b610f0b565b005b61021f611167565b60405161022c9190611d65565b60405180910390f35b61024f600480360381019061024a9190611ff0565b61116d565b005b61026b60048036038101906102669190611bcf565b61138f565b005b6102756116ed565b6040516102829190612048565b60405180910390f35b610293611711565b6040516102a09190611d65565b60405180910390f35b6102c360048036038101906102be9190611bcf565b61171e565b6040516102d09190612121565b60405180910390f35b6102f360048036038101906102ee9190611c32565b6117b8565b6040516103039493929190611d19565b60405180910390f35b6103146118e8565b6040516103219190611dc0565b60405180910390f35b610344600480360381019061033f9190611bcf565b6118fb565b604051610352929190612143565b60405180910390f35b61037560048036038101906103709190611c32565b61192c565b005b6003544210156103bc576040517f08c379a00000000000000000000000000000000000000000000000000000000081526004016103b3906121de565b60405180910390fd5b6004546003546103cc919061222d565b421061040d576040517f08c379a0000000000000000000000000000000000000000000000000000000008152600401610404906122ad565b60405180910390fd5b600560009054906101000a900460ff161561045d576040517f08c379a000000000000000000000000000000000000000000000000000000000815260040161045490612319565b60405180910390fd5b600160003373ffffffffffffffffffffffffffffffffffffffff1673ffffffffffffffffffffffffffffffffffffffff16815260200190815260200160002060000160009054906101000a900460ff166104ec576040517f08c379a00000000000000000000000000000000000000000000000000000000081526004016104e390612385565b60405180910390fd5b600160008273ffffffffffffffffffffffffffffffffffffffff1673ffffffffffffffffffffffffffffffffffffffff16815260200190815260200160002060000160009054906101000a900460ff1661057b576040517f08c379a000000000000000000000000000000000000000000000000000000000815260040161057290612417565b60405180910390fd5b8073ffffffffffffffffffffffffffffffffffffffff163373ffffffffffffffffffffffffffffffffffffffff16036105e9576040517f08c379a00000000000000000000000000000000000000000000000000000000081526004016105e090612483565b60405180910390fd5b6000600160003373ffffffffffffffffffffffffffffffffffffffff1673ffffffffffffffffffffffffffffffffffffffff1681526020019081526020016000206002018054905014610671576040517f08c379a0000000000000000000000000000000000000000000000000000000008152600401610668906124ef565b60405180910390fd5b600160003373ffffffffffffffffffffffffffffffffffffffff1673ffffffffffffffffffffffffffffffffffffffff16815260200190815260200160002060010154600160008373ffffffffffffffffffffffffffffffffffffffff1673ffffffffffffffffffffffffffffffffffffffff1681526020019081526020016000206001016000828254610705919061222d565b925050819055506000600160003373ffffffffffffffffffffffffffffffffffffffff1673ffffffffffffffffffffffffffffffffffffffff1681526020019081526020016000206001018190555050565b6002818154811061076757600080fd5b90600052602060002090600502016000915090508060000154908060010180546107909061253e565b80601f01602080910402602001604051908101604052809291908181526020018280546107bc9061253e565b80156108095780601f106107de57610100808354040283529160200191610809565b820191906000526020600020905b8154815290600101906020018083116107ec57829003601f168201915b5050505050908060020154908060030160009054906101000a900460ff16905084565b600354421015610871576040517f08c379a0000000000000000000000000000000000000000000000000000000008152600401610868906121de565b60405180910390fd5b600454600354610881919061222d565b42106108c2576040517f08c379a00000000000000000000000000000000000000000000000000000000081526004016108b9906122ad565b60405180910390fd5b600560009054906101000a900460ff1615610912576040517f08c379a000000000000000000000000000000000000000000000000000000000815260040161090990612319565b60405180910390fd5b600160003373ffffffffffffffffffffffffffffffffffffffff1673ffffffffffffffffffffffffffffffffffffffff16815260200190815260200160002060000160009054906101000a900460ff166109a1576040517f08c379a000000000000000000000000000000000000000000000000000000000815260040161099890612385565b60405180910390fd5b6000600160003373ffffffffffffffffffffffffffffffffffffffff1673ffffffffffffffffffffffffffffffffffffffff1681526020019081526020016000206001015411610a26576040517f08c379a0000000000000000000000000000000000000000000000000000000008152600401610a1d906125e1565b60405180910390fd5b6002805490508110610a6d576040517f08c379a0000000000000000000000000000000000000000000000000000000008152600401610a649061264d565b60405180910390fd5b60028181548110610a8157610a8061266d565b5b906000526020600020906005020160040160003373ffffffffffffffffffffffffffffffffffffffff1673ffffffffffffffffffffffffffffffffffffffff16815260200190815260200160002060009054906101000a900460ff1615610b1d576040517f08c379a0000000000000000000000000000000000000000000000000000000008152600401610b149061270e565b60405180910390fd5b600160028281548110610b3357610b3261266d565b5b906000526020600020906005020160040160003373ffffffffffffffffffffffffffffffffffffffff1673ffffffffffffffffffffffffffffffffffffffff16815260200190815260200160002060006101000a81548160ff021916908315150217905550600160003373ffffffffffffffffffffffffffffffffffffffff1673ffffffffffffffffffffffffffffffffffffffff1681526020019081526020016000206001015460028281548110610bef57610bee61266d565b5b90600052602060002090600502016002016000828254610c0f919061222d565b92505081905550600160003373ffffffffffffffffffffffffffffffffffffffff1673ffffffffffffffffffffffffffffffffffffffff1681526020019081526020016000206002018190806001815401808255809150506001900390600052602060002001600090919091909150557fa861727734f84b5bc2440977105f5981b9a3e78a43f338d42fa085e1138347f23382604051610cb092919061272e565b60405180910390a150565b60045481565b60006002805490508210610d0a576040517f08c379a0000000000000000000000000000000000000000000000000000000008152600401610d019061264d565b60405180910390fd5b60028281548110610d1e57610d1d61266d565b5b906000526020600020906005020160040160008473ffffffffffffffffffffffffffffffffffffffff1673ffffffffffffffffffffffffffffffffffffffff16815260200190815260200160002060009054906101000a900460ff16905092915050565b60008054906101000a900473ffffffffffffffffffffffffffffffffffffffff1673ffffffffffffffffffffffffffffffffffffffff163373ffffffffffffffffffffffffffffffffffffffff1614610e10576040517f08c379a0000000000000000000000000000000000000000000000000000000008152600401610e07906127c9565b60405180910390fd5b600560009054906101000a900460ff1615610e60576040517f08c379a0000000000000000000000000000000000000000000000000000000008152600401610e5790612835565b60405180910390fd5b6001600560006101000a81548160ff021916908315150217905550565b60606006805480602002602001604051908101604052809291908181526020018280548015610f0157602002820191906000526020600020905b8160009054906101000a900473ffffffffffffffffffffffffffffffffffffffff1673ffffffffffffffffffffffffffffffffffffffff1681526020019060010190808311610eb7575b5050505050905090565b60008054906101000a900473ffffffffffffffffffffffffffffffffffffffff1673ffffffffffffffffffffffffffffffffffffffff163373ffffffffffffffffffffffffffffffffffffffff1614610f99576040517f08c379a0000000000000000000000000000000000000000000000000000000008152600401610f90906127c9565b60405180910390fd5b600160008273ffffffffffffffffffffffffffffffffffffffff1673ffffffffffffffffffffffffffffffffffffffff16815260200190815260200160002060000160009054906101000a900460ff1615611029576040517f08c379a0000000000000000000000000000000000000000000000000000000008152600401611020906128a1565b60405180910390fd5b60018060008373ffffffffffffffffffffffffffffffffffffffff1673ffffffffffffffffffffffffffffffffffffffff16815260200190815260200160002060000160006101000a81548160ff02191690831515021790555060018060008373ffffffffffffffffffffffffffffffffffffffff1673ffffffffffffffffffffffffffffffffffffffff168152602001908152602001600020600101819055506006819080600181540180825580915050600190039060005260206000200160009091909190916101000a81548173ffffffffffffffffffffffffffffffffffffffff021916908373ffffffffffffffffffffffffffffffffffffffff1602179055507f59ec4099241a7a383b8bde98428b16bdbdc3ce1b06e9338f900b29a872b686198160405161115c9190612048565b60405180910390a150565b60035481565b60008054906101000a900473ffffffffffffffffffffffffffffffffffffffff1673ffffffffffffffffffffffffffffffffffffffff163373ffffffffffffffffffffffffffffffffffffffff16146111fb576040517f08c379a00000000000000000000000000000000000000000000000000000000081526004016111f2906127c9565b60405180910390fd5b600354421015611240576040517f08c379a0000000000000000000000000000000000000000000000000000000008152600401611237906121de565b60405180910390fd5b600454600354611250919061222d565b4210611291576040517f08c379a0000000000000000000000000000000000000000000000000000000008152600401611288906122ad565b60405180910390fd5b600560009054906101000a900460ff16156112e1576040517f08c379a00000000000000000000000000000000000000000000000000000000081526004016112d890612319565b60405180910390fd5b60006002805490509050600060026001816001815401808255809150500390600052602060002090600502019050818160000181905550828160010190816113299190612a6d565b506000816002018190555060008160030160006101000a81548160ff0219169083151502179055507f4af58721f05ee35a794190e99baa054f6e369afb2d9b79dda73b28140a005bba8284604051611382929190612b3f565b60405180910390a1505050565b60008054906101000a900473ffffffffffffffffffffffffffffffffffffffff1673ffffffffffffffffffffffffffffffffffffffff163373ffffffffffffffffffffffffffffffffffffffff161461141d576040517f08c379a0000000000000000000000000000000000000000000000000000000008152600401611414906127c9565b60405180910390fd5b600073ffffffffffffffffffffffffffffffffffffffff168173ffffffffffffffffffffffffffffffffffffffff160361148c576040517f08c379a000000000000000000000000000000000000000000000000000000000815260040161148390612bbb565b60405180910390fd5b60008054906101000a900473ffffffffffffffffffffffffffffffffffffffff1673ffffffffffffffffffffffffffffffffffffffff168173ffffffffffffffffffffffffffffffffffffffff160361151a576040517f08c379a000000000000000000000000000000000000000000000000000000000815260040161151190612c4d565b60405180910390fd5b600160008273ffffffffffffffffffffffffffffffffffffffff1673ffffffffffffffffffffffffffffffffffffffff16815260200190815260200160002060000160009054906101000a900460ff166116aa5760018060008373ffffffffffffffffffffffffffffffffffffffff1673ffffffffffffffffffffffffffffffffffffffff16815260200190815260200160002060000160006101000a81548160ff02191690831515021790555060018060008373ffffffffffffffffffffffffffffffffffffffff1673ffffffffffffffffffffffffffffffffffffffff168152602001908152602001600020600101819055506006819080600181540180825580915050600190039060005260206000200160009091909190916101000a81548173ffffffffffffffffffffffffffffffffffffffff021916908373ffffffffffffffffffffffffffffffffffffffff1602179055507f59ec4099241a7a383b8bde98428b16bdbdc3ce1b06e9338f900b29a872b68619816040516116a19190612048565b60405180910390a15b806000806101000a81548173ffffffffffffffffffffffffffffffffffffffff021916908373ffffffffffffffffffffffffffffffffffffffff16021790555050565b60008054906101000a900473ffffffffffffffffffffffffffffffffffffffff1681565b6000600280549050905090565b6060600160008373ffffffffffffffffffffffffffffffffffffffff1673ffffffffffffffffffffffffffffffffffffffff1681526020019081526020016000206002018054806020026020016040519081016040528092919081815260200182805480156117ac57602002820191906000526020600020905b815481526020019060010190808311611798575b50505050509050919050565b600060606000806002805490508510611806576040517f08c379a00000000000000000000000000000000000000000000000000000000081526004016117fd9061264d565b60405180910390fd5b60006002868154811061181c5761181b61266d565b5b9060005260206000209060050201905080600001548160010182600201548360030160009054906101000a900460ff168280546118589061253e565b80601f01602080910402602001604051908101604052809291908181526020018280546118849061253e565b80156118d15780601f106118a6576101008083540402835291602001916118d1565b820191906000526020600020905b8154815290600101906020018083116118b457829003601f168201915b505050505092509450945094509450509193509193565b600560009054906101000a900460ff1681565b60016020528060005260406000206000915090508060000160009054906101000a900460ff16908060010154905082565b60045460035461193c919061222d565b421015806119565750600560009054906101000a900460ff165b611995576040517f08c379a000000000000000000000000000000000000000000000000000000000815260040161198c90612cdf565b60405180910390fd5b60028054905081106119dc576040517f08c379a00000000000000000000000000000000000000000000000000000000081526004016119d39061264d565b60405180910390fd5b6000600282815481106119f2576119f161266d565b5b906000526020600020906005020190508060030160009054906101000a900460ff1615611a54576040517f08c379a0000000000000000000000000000000000000000000000000000000008152600401611a4b90612d4b565b60405180910390fd5b60006001905060005b600280549050811015611ac357838114158015611aa25750826002015460028281548110611a8e57611a8d61266d565b5b906000526020600020906005020160020154115b15611ab05760009150611ac3565b8080611abb90612d6b565b915050611a5d565b5080611b04576040517f08c379a0000000000000000000000000000000000000000000000000000000008152600401611afb90612dff565b60405180910390fd5b60018260030160006101000a81548160ff0219169083151502179055507f53eab7fa5dfa5954628d14433dc794a6910605f9c3c2f09ac6059b9472f043b583604051611b509190611d65565b60405180910390a1505050565b6000604051905090565b600080fd5b600080fd5b600073ffffffffffffffffffffffffffffffffffffffff82169050919050565b6000611b9c82611b71565b9050919050565b611bac81611b91565b8114611bb757600080fd5b50565b600081359050611bc981611ba3565b92915050565b600060208284031215611be557611be4611b67565b5b6000611bf384828501611bba565b91505092915050565b6000819050919050565b611c0f81611bfc565b8114611c1a57600080fd5b50565b600081359050611c2c81611c06565b92915050565b600060208284031215611c4857611c47611b67565b5b6000611c5684828501611c1d565b91505092915050565b611c6881611bfc565b82525050565b600081519050919050565b600082825260208201905092915050565b60005b83811015611ca8578082015181840152602081019050611c8d565b60008484015250505050565b6000601f19601f8301169050919050565b6000611cd082611c6e565b611cda8185611c79565b9350611cea818560208601611c8a565b611cf381611cb4565b840191505092915050565b60008115159050919050565b611d1381611cfe565b82525050565b6000608082019050611d2e6000830187611c5f565b8181036020830152611d408186611cc5565b9050611d4f6040830185611c5f565b611d5c6060830184611d0a565b95945050505050565b6000602082019050611d7a6000830184611c5f565b92915050565b60008060408385031215611d9757611d96611b67565b5b6000611da585828601611bba565b9250506020611db685828601611c1d565b9150509250929050565b6000602082019050611dd56000830184611d0a565b92915050565b600081519050919050565b600082825260208201905092915050565b6000819050602082019050919050565b611e1081611b91565b82525050565b6000611e228383611e07565b60208301905092915050565b6000602082019050919050565b6000611e4682611ddb565b611e508185611de6565b9350611e5b83611df7565b8060005b83811015611e8c578151611e738882611e16565b9750611e7e83611e2e565b925050600181019050611e5f565b5085935050505092915050565b60006020820190508181036000830152611eb38184611e3b565b905092915050565b600080fd5b600080fd5b7f4e487b7100000000000000000000000000000000000000000000000000000000600052604160045260246000fd5b611efd82611cb4565b810181811067ffffffffffffffff82111715611f1c57611f1b611ec5565b5b80604052505050565b6000611f2f611b5d565b9050611f3b8282611ef4565b919050565b600067ffffffffffffffff821115611f5b57611f5a611ec5565b5b611f6482611cb4565b9050602081019050919050565b82818337600083830152505050565b6000611f93611f8e84611f40565b611f25565b905082815260208101848484011115611faf57611fae611ec0565b5b611fba848285611f71565b509392505050565b600082601f830112611fd757611fd6611ebb565b5b8135611fe7848260208601611f80565b91505092915050565b60006020828403121561200657612005611b67565b5b600082013567ffffffffffffffff81111561202457612023611b6c565b5b61203084828501611fc2565b91505092915050565b61204281611b91565b82525050565b600060208201905061205d6000830184612039565b92915050565b600081519050919050565b600082825260208201905092915050565b6000819050602082019050919050565b61209881611bfc565b82525050565b60006120aa838361208f565b60208301905092915050565b6000602082019050919050565b60006120ce82612063565b6120d8818561206e565b93506120e38361207f565b8060005b838110156121145781516120fb888261209e565b9750612106836120b6565b9250506001810190506120e7565b5085935050505092915050565b6000602082019050818103600083015261213b81846120c3565b905092915050565b60006040820190506121586000830185611d0a565b6121656020830184611c5f565b9392505050565b7f4c6520766f74617a696f6e69206e6f6e20736f6e6f20616e636f726120696e6960008201527f7a69617465000000000000000000000000000000000000000000000000000000602082015250565b60006121c8602583611c79565b91506121d38261216c565b604082019050919050565b600060208201905081810360008301526121f7816121bb565b9050919050565b7f4e487b7100000000000000000000000000000000000000000000000000000000600052601160045260246000fd5b600061223882611bfc565b915061224383611bfc565b925082820190508082111561225b5761225a6121fe565b5b92915050565b7f4c6520766f74617a696f6e6920736f6e6f207465726d696e6174650000000000600082015250565b6000612297601b83611c79565b91506122a282612261565b602082019050919050565b600060208201905081810360008301526122c68161228a565b9050919050565b7f4c6520766f74617a696f6e6920736f6e6f20737461746520636f6e636c757365600082015250565b6000612303602083611c79565b915061230e826122cd565b602082019050919050565b60006020820190508181036000830152612332816122f6565b9050919050565b7f4e6f6e20736569207265676973747261746f20636f6d6520656c6574746f7265600082015250565b600061236f602083611c79565b915061237a82612339565b602082019050919050565b6000602082019050818103600083015261239e81612362565b9050919050565b7f496c2064656c656761746f206e6f6e206527207265676973747261746f20636f60008201527f6d6520656c6574746f7265000000000000000000000000000000000000000000602082015250565b6000612401602b83611c79565b915061240c826123a5565b604082019050919050565b60006020820190508181036000830152612430816123f4565b9050919050565b7f4e6f6e2070756f692064656c656761726520612074652073746573736f000000600082015250565b600061246d601d83611c79565b915061247882612437565b602082019050919050565b6000602082019050818103600083015261249c81612460565b9050919050565b7f486169206769612720766f7461746f0000000000000000000000000000000000600082015250565b60006124d9600f83611c79565b91506124e4826124a3565b602082019050919050565b60006020820190508181036000830152612508816124cc565b9050919050565b7f4e487b7100000000000000000000000000000000000000000000000000000000600052602260045260246000fd5b6000600282049050600182168061255657607f821691505b6020821081036125695761256861250f565b5b50919050565b7f4e6f6e20686169206469726974746f20646920766f746f20287065736f203d2060008201527f3029000000000000000000000000000000000000000000000000000000000000602082015250565b60006125cb602283611c79565b91506125d68261256f565b604082019050919050565b600060208201905081810360008301526125fa816125be565b9050919050565b7f50726f706f737461206e6f6e206573697374656e746500000000000000000000600082015250565b6000612637601683611c79565b915061264282612601565b602082019050919050565b600060208201905081810360008301526126668161262a565b9050919050565b7f4e487b7100000000000000000000000000000000000000000000000000000000600052603260045260246000fd5b7f486169206769612720766f7461746f20706572207175657374612070726f706f60008201527f7374610000000000000000000000000000000000000000000000000000000000602082015250565b60006126f8602383611c79565b91506127038261269c565b604082019050919050565b60006020820190508181036000830152612727816126eb565b9050919050565b60006040820190506127436000830185612039565b6127506020830184611c5f565b9392505050565b7f536f6c6f20696c20707265736964656e74652070756f2720657365677569726560008201527f20717565737461206f706572617a696f6e650000000000000000000000000000602082015250565b60006127b3603283611c79565b91506127be82612757565b604082019050919050565b600060208201905081810360008301526127e2816127a6565b9050919050565b7f4c6520766f74617a696f6e6920736f6e6f206769612720636f6e636c75736500600082015250565b600061281f601f83611c79565b915061282a826127e9565b602082019050919050565b6000602082019050818103600083015261284e81612812565b9050919050565b7f456c6574746f72652067696127207265676973747261746f0000000000000000600082015250565b600061288b601883611c79565b915061289682612855565b602082019050919050565b600060208201905081810360008301526128ba8161287e565b9050919050565b60008190508160005260206000209050919050565b60006020601f8301049050919050565b600082821b905092915050565b6000600883026129237fffffffffffffffffffffffffffffffffffffffffffffffffffffffffffffffff826128e6565b61292d86836128e6565b95508019841693508086168417925050509392505050565b6000819050919050565b600061296a61296561296084611bfc565b612945565b611bfc565b9050919050565b6000819050919050565b6129848361294f565b61299861299082612971565b8484546128f3565b825550505050565b600090565b6129ad6129a0565b6129b881848461297b565b505050565b5b818110156129dc576129d16000826129a5565b6001810190506129be565b5050565b601f821115612a21576129f2816128c1565b6129fb846128d6565b81016020851015612a0a578190505b612a1e612a16856128d6565b8301826129bd565b50505b505050565b600082821c905092915050565b6000612a4460001984600802612a26565b1980831691505092915050565b6000612a5d8383612a33565b9150826002028217905092915050565b612a7682611c6e565b67ffffffffffffffff811115612a8f57612a8e611ec5565b5b612a99825461253e565b612aa48282856129e0565b600060209050601f831160018114612ad75760008415612ac5578287015190505b612acf8582612a51565b865550612b37565b601f198416612ae5866128c1565b60005b82811015612b0d57848901518255600182019150602085019450602081019050612ae8565b86831015612b2a5784890151612b26601f891682612a33565b8355505b6001600288020188555050505b505050505050565b6000604082019050612b546000830185611c5f565b8181036020830152612b668184611cc5565b90509392505050565b7f496e646972697a7a6f20707265736964656e7465206e6f6e2076616c69646f00600082015250565b6000612ba5601f83611c79565b9150612bb082612b6f565b602082019050919050565b60006020820190508181036000830152612bd481612b98565b9050919050565b7f496c206e756f766f20707265736964656e74652064657665206573736572652060008201527f6469766572736f2064616c6c2761747475616c65000000000000000000000000602082015250565b6000612c37603483611c79565b9150612c4282612bdb565b604082019050919050565b60006020820190508181036000830152612c6681612c2a565b9050919050565b7f4c6520766f74617a696f6e69206e6f6e20736f6e6f20616e636f72612074657260008201527f6d696e6174650000000000000000000000000000000000000000000000000000602082015250565b6000612cc9602683611c79565b9150612cd482612c6d565b604082019050919050565b60006020820190508181036000830152612cf881612cbc565b9050919050565b7f50726f706f737461206769612720657365677569746100000000000000000000600082015250565b6000612d35601683611c79565b9150612d4082612cff565b602082019050919050565b60006020820190508181036000830152612d6481612d28565b9050919050565b6000612d7682611bfc565b91507fffffffffffffffffffffffffffffffffffffffffffffffffffffffffffffffff8203612da857612da76121fe565b5b600182019050919050565b7f4e6f6e206527206c612070726f706f737461207069752720766f746174610000600082015250565b6000612de9601e83611c79565b9150612df482612db3565b602082019050919050565b60006020820190508181036000830152612e1881612ddc565b905091905056fea26469706673582212200ea8609acf3f207252cb1979320d12ba159dd33fb9caa3183e1f35001cea442664736f6c63430008120033",
  "immutableReferences": {},
  "source": "// SPDX-License-Identifier: MIT\npragma solidity ^0.8.0;\n\n/**\n * @title SimpleVoting\n * @dev Contratto semplice per gestire votazioni on-chain\n */\ncontract SimpleVoting {\n    // Strutture dati\n    struct Proposta {\n        uint256 id;\n        string descrizione;\n        uint256 votiTotali;\n        bool eseguita;\n        mapping(address => bool) haVotato;\n    }\n    \n    struct Elettore {\n        bool iscritto;\n        uint256 peso;\n        uint256[] proposteVotate;\n    }\n    \n    // Variabili di stato\n    address public presidente;\n    mapping(address => Elettore) public elettori;\n    Proposta[] public proposte;\n    \n    uint256 public inizioVotazioni;\n    uint256 public durataVotazioni;\n    bool public votoFinito;\n    \n    // Eventi\n    event EletoreRegistrato(address elettore);\n    event PropostaAggiunta(uint256 idProposta, string descrizione);\n    event VotoEffettuato(address elettore, uint256 idProposta);\n    event PropostaEseguita(uint256 idProposta);\n    \n    // Modificatori\n    modifier soloPresidente() {\n        require(msg.sender == presidente, \"Solo il presidente puo' eseguire questa operazione\");\n        _;\n    }\n    \n    modifier votazioniAttive() {\n        require(block.timestamp >= inizioVotazioni, \"Le votazioni non sono ancora iniziate\");\n        require(block.timestamp < inizioVotazioni + durataVotazioni, \"Le votazioni sono terminate\");\n        require(!votoFinito, \"Le votazioni sono state concluse\");\n        _;\n    }\n    \n    modifier votazioniTerminate() {\n        require(block.timestamp >= inizioVotazioni + durataVotazioni || votoFinito, \"Le votazioni non sono ancora terminate\");\n        _;\n    }\n    \n    /**\n     * @dev Costruttore\n     * @param _durataOre Durata delle votazioni in ore\n     */\n    constructor(uint256 _durataOre) {\n        presidente = msg.sender;\n        \n        // Registra automaticamente il presidente\n        elettori[presidente].iscritto = true;\n        elettori[presidente].peso = 1;\n        \n        // Aggiunge il presidente all'elenco degli elettori\n        indirizziElettori.push(presidente);\n        \n        inizioVotazioni = block.timestamp;\n        durataVotazioni = _durataOre * 1 hours;\n        votoFinito = false;\n        \n        emit EletoreRegistrato(presidente);\n    }\n    \n    /**\n     * @dev Registra un nuovo elettore\n     * @param elettore L'indirizzo dell'elettore da registrare\n     */\n     /*\n    function registraElettore(address elettore) public soloPresidente {\n        require(!elettori[elettore].iscritto, \"Elettore gia' registrato\");\n        elettori[elettore].iscritto = true;\n        elettori[elettore].peso = 1;\n        \n        emit EletoreRegistrato(elettore);\n    }*/\n    \n    /**\n     * @dev Assegna diritti di delega a un elettore\n     * @param delegato L'indirizzo a cui delegare il proprio voto\n     */\n    function delega(address delegato) public votazioniAttive {\n        require(elettori[msg.sender].iscritto, \"Non sei registrato come elettore\");\n        require(elettori[delegato].iscritto, \"Il delegato non e' registrato come elettore\");\n        require(msg.sender != delegato, \"Non puoi delegare a te stesso\");\n        \n        // Verifica che l'elettore non abbia gi votato\n        require(elettori[msg.sender].proposteVotate.length == 0, \"Hai gia' votato\");\n        \n        // Aggiunge il peso dell'elettore al delegato\n        elettori[delegato].peso += elettori[msg.sender].peso;\n        elettori[msg.sender].peso = 0;\n    }\n    \n    /**\n     * @dev Aggiunge una nuova proposta\n     * @param _descrizione La descrizione della proposta\n     */\n    function aggiungiProposta(string memory _descrizione) public soloPresidente votazioniAttive {\n        uint256 idProposta = proposte.length;\n        \n        Proposta storage p = proposte.push();\n        p.id = idProposta;\n        p.descrizione = _descrizione;\n        p.votiTotali = 0;\n        p.eseguita = false;\n        \n        emit PropostaAggiunta(idProposta, _descrizione);\n    }\n    \n    /**\n     * @dev Permette a un elettore di votare\n     * @param idProposta L'ID della proposta da votare\n     */\n    function vota(uint256 idProposta) public votazioniAttive {\n        require(elettori[msg.sender].iscritto, \"Non sei registrato come elettore\");\n        require(elettori[msg.sender].peso > 0, \"Non hai diritto di voto (peso = 0)\");\n        require(idProposta < proposte.length, \"Proposta non esistente\");\n        require(!proposte[idProposta].haVotato[msg.sender], \"Hai gia' votato per questa proposta\");\n        \n        proposte[idProposta].haVotato[msg.sender] = true;\n        proposte[idProposta].votiTotali += elettori[msg.sender].peso;\n        \n        elettori[msg.sender].proposteVotate.push(idProposta);\n        \n        emit VotoEffettuato(msg.sender, idProposta);\n    }\n    \n    /**\n     * @dev Conclude le votazioni anticipatamente\n     */\n    function concludiVotazioni() public soloPresidente {\n        require(!votoFinito, \"Le votazioni sono gia' concluse\");\n        votoFinito = true;\n    }\n    \n    /**\n     * @dev Esegue una proposta vincente\n     * @param idProposta L'ID della proposta da eseguire\n     */\n    function eseguiProposta(uint256 idProposta) public votazioniTerminate {\n        require(idProposta < proposte.length, \"Proposta non esistente\");\n        \n        Proposta storage proposta = proposte[idProposta];\n        \n        require(!proposta.eseguita, \"Proposta gia' eseguita\");\n        \n        // Verifica se  la proposta vincente (la pi votata)\n        bool isVincente = true;\n        for (uint256 i = 0; i < proposte.length; i++) {\n            if (i != idProposta && proposte[i].votiTotali > proposta.votiTotali) {\n                isVincente = false;\n                break;\n            }\n        }\n        \n        require(isVincente, \"Non e' la proposta piu' votata\");\n        \n        proposta.eseguita = true;\n        \n        emit PropostaEseguita(idProposta);\n    }\n    \n    /**\n     * @dev Ottiene il numero totale di proposte\n     */\n    function getNumeroProposte() public view returns (uint256) {\n        return proposte.length;\n    }\n    \n    /**\n     * @dev Ottiene i dettagli di una proposta\n     */\n    function getDettagliProposta(uint256 idProposta) public view returns (\n        uint256 id,\n        string memory descrizione,\n        uint256 votiTotali,\n        bool eseguita\n    ) {\n        require(idProposta < proposte.length, \"Proposta non esistente\");\n        \n        Proposta storage proposta = proposte[idProposta];\n        return (\n            proposta.id,\n            proposta.descrizione,\n            proposta.votiTotali,\n            proposta.eseguita\n        );\n    }\n    \n    /**\n     * @dev Verifica se un elettore ha votato per una proposta\n     */\n    function haVotato(address elettore, uint256 idProposta) public view returns (bool) {\n        require(idProposta < proposte.length, \"Proposta non esistente\");\n        return proposte[idProposta].haVotato[elettore];\n    }\n    \n    /**\n     * @dev Ottiene le proposte votate da un elettore\n     */\n    function getProposteVotate(address elettore) public view returns (uint256[] memory) {\n        return elettori[elettore].proposteVotate;\n    }\n    \n    /**\n     * @dev Tiene traccia di tutti gli indirizzi degli elettori registrati\n     */\n    address[] private indirizziElettori;\n    \n    /**\n     * @dev Ottiene l'elenco di tutti gli elettori registrati\n     * @return Array di indirizzi degli elettori\n     */\n    function getElencoElettori() public view returns (address[] memory) {\n        return indirizziElettori;\n    }\n    \n    /**\n     * @dev Modifica la funzione registraElettore per tenere traccia degli indirizzi\n     */\n    function registraElettore(address elettore) public soloPresidente {\n        require(!elettori[elettore].iscritto, \"Elettore gia' registrato\");\n        elettori[elettore].iscritto = true;\n        elettori[elettore].peso = 1;\n        \n        // Aggiunge l'indirizzo all'elenco degli elettori\n        indirizziElettori.push(elettore);\n        \n        emit EletoreRegistrato(elettore);\n    }\n\n    /**\n    * @dev Trasferisce il ruolo di presidente a un nuovo indirizzo\n    * @param nuovoPresidente L'indirizzo del nuovo presidente\n    */\n    function cambiaPresidente(address nuovoPresidente) public soloPresidente {\n        require(nuovoPresidente != address(0), \"Indirizzo presidente non valido\");\n        require(nuovoPresidente != presidente, \"Il nuovo presidente deve essere diverso dall'attuale\");\n        \n        // Se il nuovo presidente non  gi un elettore, registralo\n        if (!elettori[nuovoPresidente].iscritto) {\n            elettori[nuovoPresidente].iscritto = true;\n            elettori[nuovoPresidente].peso = 1;\n            indirizziElettori.push(nuovoPresidente);\n            emit EletoreRegistrato(nuovoPresidente);\n        }\n        \n        // Trasferisci il ruolo di presidente\n        presidente = nuovoPresidente;\n        \n        // Puoi aggiungere un evento per tracciare il cambio di presidente\n        // event CambioPresidente(address vecchioPresidente, address nuovoPresidente);\n        // emit CambioPresidente(msg.sender, nuovoPresidente);\n    }\n}",
  "sourcePath": "/mnt/Dati/Workspace/BlockChainExamples/SoliditySmartContract05Votations/contracts/votations.sol",
  "compiler": {
    "name": "solc",
    "version": "0.8.18+commit.87f61d96.Emscripten.clang"
  },
  "schemaVersion": "3.4.16",
  "updatedAt": "2025-03-21T11:46:04.033Z",
  "networkType": "ethereum",
  "devdoc": {
    "details": "Contratto semplice per gestire votazioni on-chain",
    "kind": "dev",
    "methods": {
      "aggiungiProposta(string)": {
        "details": "Aggiunge una nuova proposta",
        "params": {
          "_descrizione": "La descrizione della proposta"
        }
      },
      "cambiaPresidente(address)": {
        "details": "Trasferisce il ruolo di presidente a un nuovo indirizzo",
        "params": {
          "nuovoPresidente": "L'indirizzo del nuovo presidente"
        }
      },
      "concludiVotazioni()": {
        "details": "Conclude le votazioni anticipatamente"
      },
      "constructor": {
        "details": "Costruttore",
        "params": {
          "_durataOre": "Durata delle votazioni in ore"
        }
      },
      "delega(address)": {
        "details": "Assegna diritti di delega a un elettore",
        "params": {
          "delegato": "L'indirizzo a cui delegare il proprio voto"
        }
      },
      "eseguiProposta(uint256)": {
        "details": "Esegue una proposta vincente",
        "params": {
          "idProposta": "L'ID della proposta da eseguire"
        }
      },
      "getDettagliProposta(uint256)": {
        "details": "Ottiene i dettagli di una proposta"
      },
      "getElencoElettori()": {
        "details": "Ottiene l'elenco di tutti gli elettori registrati",
        "returns": {
          "_0": "Array di indirizzi degli elettori"
        }
      },
      "getNumeroProposte()": {
        "details": "Ottiene il numero totale di proposte"
      },
      "getProposteVotate(address)": {
        "details": "Ottiene le proposte votate da un elettore"
      },
      "haVotato(address,uint256)": {
        "details": "Verifica se un elettore ha votato per una proposta"
      },
      "registraElettore(address)": {
        "details": "Modifica la funzione registraElettore per tenere traccia degli indirizzi"
      },
      "vota(uint256)": {
        "details": "Permette a un elettore di votare",
        "params": {
          "idProposta": "L'ID della proposta da votare"
        }
      }
    },
    "stateVariables": {
      "indirizziElettori": {
        "details": "Tiene traccia di tutti gli indirizzi degli elettori registrati"
      }
    },
    "title": "SimpleVoting",
    "version": 1
  },
  "userdoc": {
    "kind": "user",
    "methods": {},
    "version": 1
  }
}