{
  "contractName": "AdvancedVotingSystem",
  "abi": [
    {
      "inputs": [],
      "stateMutability": "nonpayable",
      "type": "constructor"
    },
    {
      "anonymous": false,
      "inputs": [
        {
          "indexed": true,
          "internalType": "uint256",
          "name": "votingId",
          "type": "uint256"
        },
        {
          "indexed": true,
          "internalType": "address",
          "name": "candidate",
          "type": "address"
        },
        {
          "indexed": false,
          "internalType": "string",
          "name": "name",
          "type": "string"
        }
      ],
      "name": "CandidateRegistered",
      "type": "event"
    },
    {
      "anonymous": false,
      "inputs": [
        {
          "indexed": true,
          "internalType": "address",
          "name": "to",
          "type": "address"
        },
        {
          "indexed": false,
          "internalType": "uint256",
          "name": "amount",
          "type": "uint256"
        }
      ],
      "name": "FundsWithdrawn",
      "type": "event"
    },
    {
      "anonymous": false,
      "inputs": [
        {
          "indexed": true,
          "internalType": "uint256",
          "name": "votingId",
          "type": "uint256"
        },
        {
          "indexed": false,
          "internalType": "uint256",
          "name": "timestamp",
          "type": "uint256"
        }
      ],
      "name": "RegistrationClosed",
      "type": "event"
    },
    {
      "anonymous": false,
      "inputs": [
        {
          "indexed": true,
          "internalType": "uint256",
          "name": "votingId",
          "type": "uint256"
        },
        {
          "indexed": true,
          "internalType": "address",
          "name": "voter",
          "type": "address"
        },
        {
          "indexed": true,
          "internalType": "address",
          "name": "candidate",
          "type": "address"
        }
      ],
      "name": "VoteCast",
      "type": "event"
    },
    {
      "anonymous": false,
      "inputs": [
        {
          "indexed": true,
          "internalType": "uint256",
          "name": "votingId",
          "type": "uint256"
        },
        {
          "indexed": false,
          "internalType": "uint256",
          "name": "timestamp",
          "type": "uint256"
        }
      ],
      "name": "VotingCancelled",
      "type": "event"
    },
    {
      "anonymous": false,
      "inputs": [
        {
          "indexed": true,
          "internalType": "uint256",
          "name": "votingId",
          "type": "uint256"
        },
        {
          "indexed": true,
          "internalType": "address",
          "name": "winner",
          "type": "address"
        },
        {
          "indexed": false,
          "internalType": "string",
          "name": "winnerName",
          "type": "string"
        },
        {
          "indexed": false,
          "internalType": "uint256",
          "name": "voteCount",
          "type": "uint256"
        }
      ],
      "name": "VotingCompleted",
      "type": "event"
    },
    {
      "anonymous": false,
      "inputs": [
        {
          "indexed": true,
          "internalType": "uint256",
          "name": "votingId",
          "type": "uint256"
        },
        {
          "indexed": false,
          "internalType": "string",
          "name": "title",
          "type": "string"
        },
        {
          "indexed": false,
          "internalType": "uint256",
          "name": "timestamp",
          "type": "uint256"
        }
      ],
      "name": "VotingSessionCreated",
      "type": "event"
    },
    {
      "inputs": [],
      "name": "admin",
      "outputs": [
        {
          "internalType": "address",
          "name": "",
          "type": "address"
        }
      ],
      "stateMutability": "view",
      "type": "function",
      "constant": true
    },
    {
      "inputs": [
        {
          "internalType": "uint256",
          "name": "",
          "type": "uint256"
        },
        {
          "internalType": "address",
          "name": "",
          "type": "address"
        }
      ],
      "name": "candidates",
      "outputs": [
        {
          "internalType": "address",
          "name": "candidateAddress",
          "type": "address"
        },
        {
          "internalType": "string",
          "name": "name",
          "type": "string"
        },
        {
          "internalType": "string",
          "name": "proposal",
          "type": "string"
        },
        {
          "internalType": "uint256",
          "name": "voteCount",
          "type": "uint256"
        },
        {
          "internalType": "bool",
          "name": "isRegistered",
          "type": "bool"
        }
      ],
      "stateMutability": "view",
      "type": "function",
      "constant": true
    },
    {
      "inputs": [],
      "name": "currentState",
      "outputs": [
        {
          "internalType": "enum AdvancedVotingSystem.VotingState",
          "name": "",
          "type": "uint8"
        }
      ],
      "stateMutability": "view",
      "type": "function",
      "constant": true
    },
    {
      "inputs": [],
      "name": "currentVotingId",
      "outputs": [
        {
          "internalType": "uint256",
          "name": "",
          "type": "uint256"
        }
      ],
      "stateMutability": "view",
      "type": "function",
      "constant": true
    },
    {
      "inputs": [],
      "name": "maxVotesRequired",
      "outputs": [
        {
          "internalType": "uint256",
          "name": "",
          "type": "uint256"
        }
      ],
      "stateMutability": "view",
      "type": "function",
      "constant": true
    },
    {
      "inputs": [
        {
          "internalType": "uint256",
          "name": "",
          "type": "uint256"
        }
      ],
      "name": "pastVotingIds",
      "outputs": [
        {
          "internalType": "uint256",
          "name": "",
          "type": "uint256"
        }
      ],
      "stateMutability": "view",
      "type": "function",
      "constant": true
    },
    {
      "inputs": [],
      "name": "registrationFee",
      "outputs": [
        {
          "internalType": "uint256",
          "name": "",
          "type": "uint256"
        }
      ],
      "stateMutability": "view",
      "type": "function",
      "constant": true
    },
    {
      "inputs": [
        {
          "internalType": "uint256",
          "name": "",
          "type": "uint256"
        },
        {
          "internalType": "address",
          "name": "",
          "type": "address"
        }
      ],
      "name": "voters",
      "outputs": [
        {
          "internalType": "bool",
          "name": "hasVoted",
          "type": "bool"
        },
        {
          "internalType": "uint256",
          "name": "votedFor",
          "type": "uint256"
        }
      ],
      "stateMutability": "view",
      "type": "function",
      "constant": true
    },
    {
      "inputs": [],
      "name": "votingFee",
      "outputs": [
        {
          "internalType": "uint256",
          "name": "",
          "type": "uint256"
        }
      ],
      "stateMutability": "view",
      "type": "function",
      "constant": true
    },
    {
      "inputs": [
        {
          "internalType": "uint256",
          "name": "",
          "type": "uint256"
        }
      ],
      "name": "votingSessions",
      "outputs": [
        {
          "internalType": "uint256",
          "name": "id",
          "type": "uint256"
        },
        {
          "internalType": "string",
          "name": "title",
          "type": "string"
        },
        {
          "internalType": "string",
          "name": "description",
          "type": "string"
        },
        {
          "internalType": "uint256",
          "name": "registrationFee",
          "type": "uint256"
        },
        {
          "internalType": "uint256",
          "name": "votingFee",
          "type": "uint256"
        },
        {
          "internalType": "uint256",
          "name": "maxVotesRequired",
          "type": "uint256"
        },
        {
          "internalType": "uint256",
          "name": "startTimestamp",
          "type": "uint256"
        },
        {
          "internalType": "uint256",
          "name": "endTimestamp",
          "type": "uint256"
        },
        {
          "internalType": "address",
          "name": "winner",
          "type": "address"
        },
        {
          "internalType": "string",
          "name": "winnerName",
          "type": "string"
        },
        {
          "internalType": "uint256",
          "name": "totalVotes",
          "type": "uint256"
        },
        {
          "internalType": "enum AdvancedVotingSystem.VotingState",
          "name": "state",
          "type": "uint8"
        }
      ],
      "stateMutability": "view",
      "type": "function",
      "constant": true
    },
    {
      "inputs": [
        {
          "internalType": "string",
          "name": "title",
          "type": "string"
        },
        {
          "internalType": "string",
          "name": "description",
          "type": "string"
        },
        {
          "internalType": "uint256",
          "name": "_registrationFee",
          "type": "uint256"
        },
        {
          "internalType": "uint256",
          "name": "_votingFee",
          "type": "uint256"
        }
      ],
      "name": "createVotingSession",
      "outputs": [],
      "stateMutability": "nonpayable",
      "type": "function"
    },
    {
      "inputs": [
        {
          "internalType": "string",
          "name": "name",
          "type": "string"
        },
        {
          "internalType": "string",
          "name": "proposal",
          "type": "string"
        }
      ],
      "name": "registerCandidate",
      "outputs": [],
      "stateMutability": "payable",
      "type": "function",
      "payable": true
    },
    {
      "inputs": [
        {
          "internalType": "uint256",
          "name": "_maxVotesRequired",
          "type": "uint256"
        }
      ],
      "name": "closeRegistrationAndStartVoting",
      "outputs": [],
      "stateMutability": "nonpayable",
      "type": "function"
    },
    {
      "inputs": [
        {
          "internalType": "address",
          "name": "candidateAddress",
          "type": "address"
        }
      ],
      "name": "vote",
      "outputs": [],
      "stateMutability": "payable",
      "type": "function",
      "payable": true
    },
    {
      "inputs": [],
      "name": "endVoting",
      "outputs": [],
      "stateMutability": "nonpayable",
      "type": "function"
    },
    {
      "inputs": [],
      "name": "cancelVoting",
      "outputs": [],
      "stateMutability": "nonpayable",
      "type": "function"
    },
    {
      "inputs": [
        {
          "internalType": "uint256",
          "name": "amount",
          "type": "uint256"
        }
      ],
      "name": "withdrawFunds",
      "outputs": [],
      "stateMutability": "nonpayable",
      "type": "function"
    },
    {
      "inputs": [
        {
          "internalType": "uint256",
          "name": "votingId",
          "type": "uint256"
        },
        {
          "internalType": "address",
          "name": "candidateAddress",
          "type": "address"
        }
      ],
      "name": "getCandidateDetails",
      "outputs": [
        {
          "internalType": "string",
          "name": "name",
          "type": "string"
        },
        {
          "internalType": "string",
          "name": "proposal",
          "type": "string"
        },
        {
          "internalType": "uint256",
          "name": "voteCount",
          "type": "uint256"
        }
      ],
      "stateMutability": "view",
      "type": "function",
      "constant": true
    },
    {
      "inputs": [
        {
          "internalType": "uint256",
          "name": "votingId",
          "type": "uint256"
        }
      ],
      "name": "getCandidatesList",
      "outputs": [
        {
          "internalType": "address[]",
          "name": "candidatesList",
          "type": "address[]"
        }
      ],
      "stateMutability": "view",
      "type": "function",
      "constant": true
    },
    {
      "inputs": [
        {
          "internalType": "uint256",
          "name": "votingId",
          "type": "uint256"
        },
        {
          "internalType": "address",
          "name": "voterAddress",
          "type": "address"
        }
      ],
      "name": "hasVoted",
      "outputs": [
        {
          "internalType": "bool",
          "name": "hasVotedStatus",
          "type": "bool"
        }
      ],
      "stateMutability": "view",
      "type": "function",
      "constant": true
    },
    {
      "inputs": [],
      "name": "getCurrentVotingId",
      "outputs": [
        {
          "internalType": "uint256",
          "name": "currentId",
          "type": "uint256"
        }
      ],
      "stateMutability": "view",
      "type": "function",
      "constant": true
    },
    {
      "inputs": [],
      "name": "getCurrentState",
      "outputs": [
        {
          "internalType": "enum AdvancedVotingSystem.VotingState",
          "name": "state",
          "type": "uint8"
        }
      ],
      "stateMutability": "view",
      "type": "function",
      "constant": true
    },
    {
      "inputs": [],
      "name": "getPastVotingSessions",
      "outputs": [
        {
          "internalType": "uint256[]",
          "name": "pastIds",
          "type": "uint256[]"
        }
      ],
      "stateMutability": "view",
      "type": "function",
      "constant": true
    },
    {
      "inputs": [
        {
          "internalType": "uint256",
          "name": "votingId",
          "type": "uint256"
        }
      ],
      "name": "getVotingResults",
      "outputs": [
        {
          "internalType": "string",
          "name": "title",
          "type": "string"
        },
        {
          "internalType": "uint256",
          "name": "totalVotes",
          "type": "uint256"
        },
        {
          "internalType": "address",
          "name": "winner",
          "type": "address"
        },
        {
          "internalType": "string",
          "name": "winnerName",
          "type": "string"
        },
        {
          "internalType": "uint256",
          "name": "voteCount",
          "type": "uint256"
        }
      ],
      "stateMutability": "view",
      "type": "function",
      "constant": true
    },
    {
      "inputs": [
        {
          "internalType": "uint256",
          "name": "votingId",
          "type": "uint256"
        }
      ],
      "name": "getVotingSessionDetails",
      "outputs": [
        {
          "components": [
            {
              "internalType": "uint256",
              "name": "id",
              "type": "uint256"
            },
            {
              "internalType": "string",
              "name": "title",
              "type": "string"
            },
            {
              "internalType": "string",
              "name": "description",
              "type": "string"
            },
            {
              "internalType": "uint256",
              "name": "registrationFee",
              "type": "uint256"
            },
            {
              "internalType": "uint256",
              "name": "votingFee",
              "type": "uint256"
            },
            {
              "internalType": "uint256",
              "name": "maxVotesRequired",
              "type": "uint256"
            },
            {
              "internalType": "uint256",
              "name": "startTimestamp",
              "type": "uint256"
            },
            {
              "internalType": "uint256",
              "name": "endTimestamp",
              "type": "uint256"
            },
            {
              "internalType": "uint256",
              "name": "totalCandidates",
              "type": "uint256"
            },
            {
              "internalType": "address",
              "name": "winner",
              "type": "address"
            },
            {
              "internalType": "string",
              "name": "winnerName",
              "type": "string"
            },
            {
              "internalType": "uint256",
              "name": "totalVotes",
              "type": "uint256"
            },
            {
              "internalType": "enum AdvancedVotingSystem.VotingState",
              "name": "state",
              "type": "uint8"
            }
          ],
          "internalType": "struct AdvancedVotingSystem.VotingSessionDetails",
          "name": "",
          "type": "tuple"
        }
      ],
      "stateMutability": "view",
      "type": "function",
      "constant": true
    },
    {
      "inputs": [],
      "name": "getAllPastVotingResults",
      "outputs": [
        {
          "internalType": "uint256[]",
          "name": "votingIds",
          "type": "uint256[]"
        },
        {
          "internalType": "string[]",
          "name": "titles",
          "type": "string[]"
        },
        {
          "internalType": "address[]",
          "name": "winners",
          "type": "address[]"
        },
        {
          "internalType": "string[]",
          "name": "winnerNames",
          "type": "string[]"
        },
        {
          "internalType": "uint256[]",
          "name": "voteCounts",
          "type": "uint256[]"
        }
      ],
      "stateMutability": "view",
      "type": "function",
      "constant": true
    },
    {
      "inputs": [],
      "name": "getBalance",
      "outputs": [
        {
          "internalType": "uint256",
          "name": "balance",
          "type": "uint256"
        }
      ],
      "stateMutability": "view",
      "type": "function",
      "constant": true
    },
    {
      "inputs": [
        {
          "internalType": "address",
          "name": "newAdmin",
          "type": "address"
        }
      ],
      "name": "changeAdmin",
      "outputs": [],
      "stateMutability": "nonpayable",
      "type": "function"
    }
  ],
  "bytecode": "0x60806040523480156200001157600080fd5b50336000806101000a81548173ffffffffffffffffffffffffffffffffffffffff021916908373ffffffffffffffffffffffffffffffffffffffff16021790555060008060146101000a81548160ff021916908360038111156200007a57620000796200008d565b5b02179055506000600181905550620000bc565b7f4e487b7100000000000000000000000000000000000000000000000000000000600052602160045260246000fd5b614fe780620000cc6000396000f3fe6080604052600436106101b75760003560e01c80636faeb7c8116100ec578063a8cc9ee81161008a578063d2942cfb11610064578063d2942cfb14610620578063d8b6f8941461065d578063dab306b114610688578063f851a440146106b3576101b7565b8063a8cc9ee814610599578063c3403ddf146105c8578063cd89b2e3146105df576101b7565b80638a6ffb63116100c65780638a6ffb63146104c85780638f2839701461050757806398684bbe146105305780639e3190631461055b576101b7565b80636faeb7c81461044b57806381f4b2321461048857806388a4f9c01461049f576101b7565b806318118402116101595780634385963211610133578063438596321461038657806344dd40a1146103c357806354868d43146103ee5780636dd7d8ea1461042f576101b7565b806318118402146102f55780632ed3ac1314610332578063378aa7011461035b576101b7565b80631186eb7c116101955780631186eb7c1461022e57806312065fe01461027657806314c44e09146102a1578063155dd5ee146102cc576101b7565b80630a869cbf146101bc5780630c3f6acf146101e75780630dbce4dd14610212575b600080fd5b3480156101c857600080fd5b506101d16106de565b6040516101de91906138c9565b60405180910390f35b3480156101f357600080fd5b506101fc61072c565b604051610209919061395b565b60405180910390f35b61022c60048036038101906102279190613ad0565b61073f565b005b34801561023a57600080fd5b5061025560048036038101906102509190613b74565b610aa0565b60405161026d9c9b9a99989796959493929190613c61565b60405180910390f35b34801561028257600080fd5b5061028b610cc5565b60405161029891906138c9565b60405180910390f35b3480156102ad57600080fd5b506102b6610d5c565b6040516102c391906138c9565b60405180910390f35b3480156102d857600080fd5b506102f360048036038101906102ee9190613b74565b610d62565b005b34801561030157600080fd5b5061031c60048036038101906103179190613b74565b610f72565b6040516103299190613ece565b60405180910390f35b34801561033e57600080fd5b5061035960048036038101906103549190613ef0565b611266565b005b34801561036757600080fd5b50610370611617565b60405161037d919061395b565b60405180910390f35b34801561039257600080fd5b506103ad60048036038101906103a89190613fbb565b61162d565b6040516103ba9190614016565b60405180910390f35b3480156103cf57600080fd5b506103d8611698565b6040516103e591906138c9565b60405180910390f35b3480156103fa57600080fd5b5061041560048036038101906104109190613fbb565b61169e565b604051610426959493929190614031565b60405180910390f35b61044960048036038101906104449190614092565b61181e565b005b34801561045757600080fd5b50610472600480360381019061046d9190613b74565b611c20565b60405161047f91906138c9565b60405180910390f35b34801561049457600080fd5b5061049d611c44565b005b3480156104ab57600080fd5b506104c660048036038101906104c19190613b74565b611e37565b005b3480156104d457600080fd5b506104ef60048036038101906104ea9190613fbb565b61206a565b6040516104fe939291906140bf565b60405180910390f35b34801561051357600080fd5b5061052e60048036038101906105299190614092565b61232a565b005b34801561053c57600080fd5b5061054561246a565b60405161055291906141b3565b60405180910390f35b34801561056757600080fd5b50610582600480360381019061057d9190613fbb565b6124c2565b6040516105909291906141d5565b60405180910390f35b3480156105a557600080fd5b506105ae612500565b6040516105bf95949392919061436f565b60405180910390f35b3480156105d457600080fd5b506105dd612baf565b005b3480156105eb57600080fd5b5061060660048036038101906106019190613b74565b612ccd565b6040516106179594939291906143e5565b60405180910390f35b34801561062c57600080fd5b5061064760048036038101906106429190613b74565b6131b0565b6040516106549190614446565b60405180910390f35b34801561066957600080fd5b50610672613254565b60405161067f91906138c9565b60405180910390f35b34801561069457600080fd5b5061069d61325a565b6040516106aa91906138c9565b60405180910390f35b3480156106bf57600080fd5b506106c8613260565b6040516106d59190614468565b60405180910390f35b60008060038111156106f3576106f26138e4565b5b600060149054906101000a900460ff166003811115610715576107146138e4565b5b036107235760009050610729565b60015490505b90565b600060149054906101000a900460ff1681565b6001806003811115610754576107536138e4565b5b600060149054906101000a900460ff166003811115610776576107756138e4565b5b146107b6576040517f08c379a00000000000000000000000000000000000000000000000000000000081526004016107ad906144f5565b60405180910390fd5b6002543410156107fb576040517f08c379a00000000000000000000000000000000000000000000000000000000081526004016107f290614587565b60405180910390fd5b60066000600154815260200190815260200160002060003373ffffffffffffffffffffffffffffffffffffffff1673ffffffffffffffffffffffffffffffffffffffff16815260200190815260200160002060040160009054906101000a900460ff161561089e576040517f08c379a0000000000000000000000000000000000000000000000000000000008152600401610895906145f3565b60405180910390fd5b6040518060a001604052803373ffffffffffffffffffffffffffffffffffffffff168152602001848152602001838152602001600081526020016001151581525060066000600154815260200190815260200160002060003373ffffffffffffffffffffffffffffffffffffffff1673ffffffffffffffffffffffffffffffffffffffff16815260200190815260200160002060008201518160000160006101000a81548173ffffffffffffffffffffffffffffffffffffffff021916908373ffffffffffffffffffffffffffffffffffffffff160217905550602082015181600101908161098d919061481f565b5060408201518160020190816109a3919061481f565b506060820151816003015560808201518160040160006101000a81548160ff021916908315150217905550905050600560006001548152602001908152602001600020600801339080600181540180825580915050600190039060005260206000200160009091909190916101000a81548173ffffffffffffffffffffffffffffffffffffffff021916908373ffffffffffffffffffffffffffffffffffffffff1602179055503373ffffffffffffffffffffffffffffffffffffffff166001547f9d578c41b8bdec65a49d33c116348eab36fda5bd5b8d9ecec2cf54051de8cd9f85604051610a9391906148f1565b60405180910390a3505050565b6005602052806000526040600020600091509050806000015490806001018054610ac990614642565b80601f0160208091040260200160405190810160405280929190818152602001828054610af590614642565b8015610b425780601f10610b1757610100808354040283529160200191610b42565b820191906000526020600020905b815481529060010190602001808311610b2557829003601f168201915b505050505090806002018054610b5790614642565b80601f0160208091040260200160405190810160405280929190818152602001828054610b8390614642565b8015610bd05780601f10610ba557610100808354040283529160200191610bd0565b820191906000526020600020905b815481529060010190602001808311610bb357829003601f168201915b5050505050908060030154908060040154908060050154908060060154908060070154908060090160009054906101000a900473ffffffffffffffffffffffffffffffffffffffff169080600a018054610c2990614642565b80601f0160208091040260200160405190810160405280929190818152602001828054610c5590614642565b8015610ca25780601f10610c7757610100808354040283529160200191610ca2565b820191906000526020600020905b815481529060010190602001808311610c8557829003601f168201915b50505050509080600b01549080600c0160009054906101000a900460ff1690508c565b60008060009054906101000a900473ffffffffffffffffffffffffffffffffffffffff1673ffffffffffffffffffffffffffffffffffffffff163373ffffffffffffffffffffffffffffffffffffffff1614610d56576040517f08c379a0000000000000000000000000000000000000000000000000000000008152600401610d4d90614985565b60405180910390fd5b47905090565b60025481565b60008054906101000a900473ffffffffffffffffffffffffffffffffffffffff1673ffffffffffffffffffffffffffffffffffffffff163373ffffffffffffffffffffffffffffffffffffffff1614610df0576040517f08c379a0000000000000000000000000000000000000000000000000000000008152600401610de790614985565b60405180910390fd5b47811115610e33576040517f08c379a0000000000000000000000000000000000000000000000000000000008152600401610e2a906149f1565b60405180910390fd5b60008060009054906101000a900473ffffffffffffffffffffffffffffffffffffffff1673ffffffffffffffffffffffffffffffffffffffff1682604051610e7a90614a42565b60006040518083038185875af1925050503d8060008114610eb7576040519150601f19603f3d011682016040523d82523d6000602084013e610ebc565b606091505b5050905080610f00576040517f08c379a0000000000000000000000000000000000000000000000000000000008152600401610ef790614aa3565b60405180910390fd5b60008054906101000a900473ffffffffffffffffffffffffffffffffffffffff1673ffffffffffffffffffffffffffffffffffffffff167feaff4b37086828766ad3268786972c0cd24259d4c87a80f9d3963a3c3d999b0d83604051610f6691906138c9565b60405180910390a25050565b610f7a613779565b600082118015610f8c57506001548211155b610fcb576040517f08c379a0000000000000000000000000000000000000000000000000000000008152600401610fc290614b0f565b60405180910390fd5b6000600560008481526020019081526020016000209050604051806101a001604052808260000154815260200182600101805461100790614642565b80601f016020809104026020016040519081016040528092919081815260200182805461103390614642565b80156110805780601f1061105557610100808354040283529160200191611080565b820191906000526020600020905b81548152906001019060200180831161106357829003601f168201915b5050505050815260200182600201805461109990614642565b80601f01602080910402602001604051908101604052809291908181526020018280546110c590614642565b80156111125780601f106110e757610100808354040283529160200191611112565b820191906000526020600020905b8154815290600101906020018083116110f557829003601f168201915b505050505081526020018260030154815260200182600401548152602001826005015481526020018260060154815260200182600701548152602001826008018054905081526020018260090160009054906101000a900473ffffffffffffffffffffffffffffffffffffffff1673ffffffffffffffffffffffffffffffffffffffff16815260200182600a0180546111aa90614642565b80601f01602080910402602001604051908101604052809291908181526020018280546111d690614642565b80156112235780601f106111f857610100808354040283529160200191611223565b820191906000526020600020905b81548152906001019060200180831161120657829003601f168201915b5050505050815260200182600b0154815260200182600c0160009054906101000a900460ff16600381111561125b5761125a6138e4565b5b815250915050919050565b60008054906101000a900473ffffffffffffffffffffffffffffffffffffffff1673ffffffffffffffffffffffffffffffffffffffff163373ffffffffffffffffffffffffffffffffffffffff16146112f4576040517f08c379a00000000000000000000000000000000000000000000000000000000081526004016112eb90614985565b60405180910390fd5b6000806003811115611309576113086138e4565b5b600060149054906101000a900460ff16600381111561132b5761132a6138e4565b5b1461136b576040517f08c379a0000000000000000000000000000000000000000000000000000000008152600401611362906144f5565b60405180910390fd5b6001600081548092919061137e90614b5e565b91905055508260028190555081600381905550604051806101a0016040528060015481526020018681526020018581526020018481526020018381526020016000815260200142815260200160008152602001600067ffffffffffffffff8111156113ec576113eb6139a5565b5b60405190808252806020026020018201604052801561141a5781602001602082028036833780820191505090505b508152602001600073ffffffffffffffffffffffffffffffffffffffff168152602001604051806020016040528060008152508152602001600081526020016001600381111561146d5761146c6138e4565b5b8152506005600060015481526020019081526020016000206000820151816000015560208201518160010190816114a4919061481f565b5060408201518160020190816114ba919061481f565b50606082015181600301556080820151816004015560a0820151816005015560c0820151816006015560e0820151816007015561010082015181600801908051906020019061150a929190613809565b506101208201518160090160006101000a81548173ffffffffffffffffffffffffffffffffffffffff021916908373ffffffffffffffffffffffffffffffffffffffff16021790555061014082015181600a019081611569919061481f565b5061016082015181600b015561018082015181600c0160006101000a81548160ff021916908360038111156115a1576115a06138e4565b5b02179055509050506001600060146101000a81548160ff021916908360038111156115cf576115ce6138e4565b5b02179055506001547f67b05412a3a92d5c9c307eb0157cc1d1bfdb42b6b0eb2cbf93945ee1615dd8bc8642604051611608929190614ba6565b60405180910390a25050505050565b60008060149054906101000a900460ff16905090565b60006007600084815260200190815260200160002060008373ffffffffffffffffffffffffffffffffffffffff1673ffffffffffffffffffffffffffffffffffffffff16815260200190815260200160002060000160009054906101000a900460ff16905092915050565b60045481565b6006602052816000526040600020602052806000526040600020600091509150508060000160009054906101000a900473ffffffffffffffffffffffffffffffffffffffff16908060010180546116f490614642565b80601f016020809104026020016040519081016040528092919081815260200182805461172090614642565b801561176d5780601f106117425761010080835404028352916020019161176d565b820191906000526020600020905b81548152906001019060200180831161175057829003601f168201915b50505050509080600201805461178290614642565b80601f01602080910402602001604051908101604052809291908181526020018280546117ae90614642565b80156117fb5780601f106117d0576101008083540402835291602001916117fb565b820191906000526020600020905b8154815290600101906020018083116117de57829003601f168201915b5050505050908060030154908060040160009054906101000a900460ff16905085565b6002806003811115611833576118326138e4565b5b600060149054906101000a900460ff166003811115611855576118546138e4565b5b14611895576040517f08c379a000000000000000000000000000000000000000000000000000000000815260040161188c906144f5565b60405180910390fd5b6003543410156118da576040517f08c379a00000000000000000000000000000000000000000000000000000000081526004016118d190614c48565b60405180910390fd5b60066000600154815260200190815260200160002060008373ffffffffffffffffffffffffffffffffffffffff1673ffffffffffffffffffffffffffffffffffffffff16815260200190815260200160002060040160009054906101000a900460ff1661197c576040517f08c379a000000000000000000000000000000000000000000000000000000000815260040161197390614cb4565b60405180910390fd5b60076000600154815260200190815260200160002060003373ffffffffffffffffffffffffffffffffffffffff1673ffffffffffffffffffffffffffffffffffffffff16815260200190815260200160002060000160009054906101000a900460ff1615611a1f576040517f08c379a0000000000000000000000000000000000000000000000000000000008152600401611a1690614d20565b60405180910390fd5b6040518060400160405280600115158152602001611a3c84613284565b81525060076000600154815260200190815260200160002060003373ffffffffffffffffffffffffffffffffffffffff1673ffffffffffffffffffffffffffffffffffffffff16815260200190815260200160002060008201518160000160006101000a81548160ff0219169083151502179055506020820151816001015590505060066000600154815260200190815260200160002060008373ffffffffffffffffffffffffffffffffffffffff1673ffffffffffffffffffffffffffffffffffffffff1681526020019081526020016000206003016000815480929190611b2490614b5e565b9190505550600560006001548152602001908152602001600020600b016000815480929190611b5290614b5e565b91905055508173ffffffffffffffffffffffffffffffffffffffff163373ffffffffffffffffffffffffffffffffffffffff166001547fcfff1651bcea794952a516ce970ab17518a85210bd939aaeaac670a8d3e65ec760405160405180910390a460045460066000600154815260200190815260200160002060008473ffffffffffffffffffffffffffffffffffffffff1673ffffffffffffffffffffffffffffffffffffffff1681526020019081526020016000206003015410611c1c57611c1b826133a8565b5b5050565b60088181548110611c3057600080fd5b906000526020600020016000915090505481565b60008054906101000a900473ffffffffffffffffffffffffffffffffffffffff1673ffffffffffffffffffffffffffffffffffffffff163373ffffffffffffffffffffffffffffffffffffffff1614611cd2576040517f08c379a0000000000000000000000000000000000000000000000000000000008152600401611cc990614985565b60405180910390fd5b60006003811115611ce657611ce56138e4565b5b600060149054906101000a900460ff166003811115611d0857611d076138e4565b5b03611d48576040517f08c379a0000000000000000000000000000000000000000000000000000000008152600401611d3f90614d8c565b60405180910390fd5b6003600560006001548152602001908152602001600020600c0160006101000a81548160ff02191690836003811115611d8457611d836138e4565b5b021790555042600560006001548152602001908152602001600020600701819055506008600154908060018154018082558091505060019003906000526020600020016000909190919091505560008060146101000a81548160ff02191690836003811115611df657611df56138e4565b5b02179055506001547ff5b9039b2a62ee17c7bb3cce39d1a9f0a20266d0cccc018cdbf117ca029d297d42604051611e2d91906138c9565b60405180910390a2565b60008054906101000a900473ffffffffffffffffffffffffffffffffffffffff1673ffffffffffffffffffffffffffffffffffffffff163373ffffffffffffffffffffffffffffffffffffffff1614611ec5576040517f08c379a0000000000000000000000000000000000000000000000000000000008152600401611ebc90614985565b60405180910390fd5b6001806003811115611eda57611ed96138e4565b5b600060149054906101000a900460ff166003811115611efc57611efb6138e4565b5b14611f3c576040517f08c379a0000000000000000000000000000000000000000000000000000000008152600401611f33906144f5565b60405180910390fd5b60016005600060015481526020019081526020016000206008018054905011611f9a576040517f08c379a0000000000000000000000000000000000000000000000000000000008152600401611f9190614df8565b60405180910390fd5b60008211611fdd576040517f08c379a0000000000000000000000000000000000000000000000000000000008152600401611fd490614e8a565b60405180910390fd5b8160048190555081600560006001548152602001908152602001600020600501819055506002600060146101000a81548160ff02191690836003811115612027576120266138e4565b5b02179055506001547f64d0f40aa47b2a1f62d09ad9f129aadd33f1cf29ccaf08d792f73dae63ab0ec24260405161205e91906138c9565b60405180910390a25050565b60608060006006600086815260200190815260200160002060008573ffffffffffffffffffffffffffffffffffffffff1673ffffffffffffffffffffffffffffffffffffffff16815260200190815260200160002060040160009054906101000a900460ff1661210f576040517f08c379a000000000000000000000000000000000000000000000000000000000815260040161210690614cb4565b60405180910390fd5b60006006600087815260200190815260200160002060008673ffffffffffffffffffffffffffffffffffffffff1673ffffffffffffffffffffffffffffffffffffffff1681526020019081526020016000206040518060a00160405290816000820160009054906101000a900473ffffffffffffffffffffffffffffffffffffffff1673ffffffffffffffffffffffffffffffffffffffff1673ffffffffffffffffffffffffffffffffffffffff1681526020016001820180546121d290614642565b80601f01602080910402602001604051908101604052809291908181526020018280546121fe90614642565b801561224b5780601f106122205761010080835404028352916020019161224b565b820191906000526020600020905b81548152906001019060200180831161222e57829003601f168201915b5050505050815260200160028201805461226490614642565b80601f016020809104026020016040519081016040528092919081815260200182805461229090614642565b80156122dd5780601f106122b2576101008083540402835291602001916122dd565b820191906000526020600020905b8154815290600101906020018083116122c057829003601f168201915b50505050508152602001600382015481526020016004820160009054906101000a900460ff1615151515815250509050806020015181604001518260600151935093509350509250925092565b60008054906101000a900473ffffffffffffffffffffffffffffffffffffffff1673ffffffffffffffffffffffffffffffffffffffff163373ffffffffffffffffffffffffffffffffffffffff16146123b8576040517f08c379a00000000000000000000000000000000000000000000000000000000081526004016123af90614985565b60405180910390fd5b600073ffffffffffffffffffffffffffffffffffffffff168173ffffffffffffffffffffffffffffffffffffffff1603612427576040517f08c379a000000000000000000000000000000000000000000000000000000000815260040161241e90614ef6565b60405180910390fd5b806000806101000a81548173ffffffffffffffffffffffffffffffffffffffff021916908373ffffffffffffffffffffffffffffffffffffffff16021790555050565b606060088054806020026020016040519081016040528092919081815260200182805480156124b857602002820191906000526020600020905b8154815260200190600101908083116124a4575b5050505050905090565b6007602052816000526040600020602052806000526040600020600091509150508060000160009054906101000a900460ff16908060010154905082565b6060806060806060600060088054905090508067ffffffffffffffff81111561252c5761252b6139a5565b5b60405190808252806020026020018201604052801561255a5781602001602082028036833780820191505090505b5095508067ffffffffffffffff811115612577576125766139a5565b5b6040519080825280602002602001820160405280156125aa57816020015b60608152602001906001900390816125955790505b5094508067ffffffffffffffff8111156125c7576125c66139a5565b5b6040519080825280602002602001820160405280156125f55781602001602082028036833780820191505090505b5093508067ffffffffffffffff811115612612576126116139a5565b5b60405190808252806020026020018201604052801561264557816020015b60608152602001906001900390816126305790505b5092508067ffffffffffffffff811115612662576126616139a5565b5b6040519080825280602002602001820160405280156126905781602001602082028036833780820191505090505b50915060005b81811015612ba6576000600882815481106126b4576126b3614f16565b5b90600052602060002001549050600060056000838152602001908152602001600020604051806101a0016040529081600082015481526020016001820180546126fc90614642565b80601f016020809104026020016040519081016040528092919081815260200182805461272890614642565b80156127755780601f1061274a57610100808354040283529160200191612775565b820191906000526020600020905b81548152906001019060200180831161275857829003601f168201915b5050505050815260200160028201805461278e90614642565b80601f01602080910402602001604051908101604052809291908181526020018280546127ba90614642565b80156128075780601f106127dc57610100808354040283529160200191612807565b820191906000526020600020905b8154815290600101906020018083116127ea57829003601f168201915b505050505081526020016003820154815260200160048201548152602001600582015481526020016006820154815260200160078201548152602001600882018054806020026020016040519081016040528092919081815260200182805480156128c757602002820191906000526020600020905b8160009054906101000a900473ffffffffffffffffffffffffffffffffffffffff1673ffffffffffffffffffffffffffffffffffffffff168152602001906001019080831161287d575b505050505081526020016009820160009054906101000a900473ffffffffffffffffffffffffffffffffffffffff1673ffffffffffffffffffffffffffffffffffffffff1673ffffffffffffffffffffffffffffffffffffffff168152602001600a8201805461293690614642565b80601f016020809104026020016040519081016040528092919081815260200182805461296290614642565b80156129af5780601f10612984576101008083540402835291602001916129af565b820191906000526020600020905b81548152906001019060200180831161299257829003601f168201915b50505050508152602001600b8201548152602001600c820160009054906101000a900460ff1660038111156129e7576129e66138e4565b5b60038111156129f9576129f86138e4565b5b81525050905081898481518110612a1357612a12614f16565b5b6020026020010181815250508060200151888481518110612a3757612a36614f16565b5b6020026020010181905250806101200151878481518110612a5b57612a5a614f16565b5b602002602001019073ffffffffffffffffffffffffffffffffffffffff16908173ffffffffffffffffffffffffffffffffffffffff1681525050806101400151868481518110612aae57612aad614f16565b5b6020026020010181905250600073ffffffffffffffffffffffffffffffffffffffff1681610120015173ffffffffffffffffffffffffffffffffffffffff1614612b6f5760066000838152602001908152602001600020600082610120015173ffffffffffffffffffffffffffffffffffffffff1673ffffffffffffffffffffffffffffffffffffffff16815260200190815260200160002060030154858481518110612b5e57612b5d614f16565b5b602002602001018181525050612b91565b6000858481518110612b8457612b83614f16565b5b6020026020010181815250505b50508080612b9e90614b5e565b915050612696565b50509091929394565b60008054906101000a900473ffffffffffffffffffffffffffffffffffffffff1673ffffffffffffffffffffffffffffffffffffffff163373ffffffffffffffffffffffffffffffffffffffff1614612c3d576040517f08c379a0000000000000000000000000000000000000000000000000000000008152600401612c3490614985565b60405180910390fd5b6002806003811115612c5257612c516138e4565b5b600060149054906101000a900460ff166003811115612c7457612c736138e4565b5b14612cb4576040517f08c379a0000000000000000000000000000000000000000000000000000000008152600401612cab906144f5565b60405180910390fd5b6000612cbe61366c565b9050612cc9816133a8565b5050565b6060600080606060008086118015612ce757506001548611155b612d26576040517f08c379a0000000000000000000000000000000000000000000000000000000008152600401612d1d90614b0f565b60405180910390fd5b600380811115612d3957612d386138e4565b5b60056000888152602001908152602001600020600c0160009054906101000a900460ff166003811115612d6f57612d6e6138e4565b5b14612daf576040517f08c379a0000000000000000000000000000000000000000000000000000000008152600401612da690614f91565b60405180910390fd5b600060056000888152602001908152602001600020604051806101a001604052908160008201548152602001600182018054612dea90614642565b80601f0160208091040260200160405190810160405280929190818152602001828054612e1690614642565b8015612e635780601f10612e3857610100808354040283529160200191612e63565b820191906000526020600020905b815481529060010190602001808311612e4657829003601f168201915b50505050508152602001600282018054612e7c90614642565b80601f0160208091040260200160405190810160405280929190818152602001828054612ea890614642565b8015612ef55780601f10612eca57610100808354040283529160200191612ef5565b820191906000526020600020905b815481529060010190602001808311612ed857829003601f168201915b50505050508152602001600382015481526020016004820154815260200160058201548152602001600682015481526020016007820154815260200160088201805480602002602001604051908101604052809291908181526020018280548015612fb557602002820191906000526020600020905b8160009054906101000a900473ffffffffffffffffffffffffffffffffffffffff1673ffffffffffffffffffffffffffffffffffffffff1681526020019060010190808311612f6b575b505050505081526020016009820160009054906101000a900473ffffffffffffffffffffffffffffffffffffffff1673ffffffffffffffffffffffffffffffffffffffff1673ffffffffffffffffffffffffffffffffffffffff168152602001600a8201805461302490614642565b80601f016020809104026020016040519081016040528092919081815260200182805461305090614642565b801561309d5780601f106130725761010080835404028352916020019161309d565b820191906000526020600020905b81548152906001019060200180831161308057829003601f168201915b50505050508152602001600b8201548152602001600c820160009054906101000a900460ff1660038111156130d5576130d46138e4565b5b60038111156130e7576130e66138e4565b5b81525050905060008073ffffffffffffffffffffffffffffffffffffffff1682610120015173ffffffffffffffffffffffffffffffffffffffff16146131835760066000898152602001908152602001600020600083610120015173ffffffffffffffffffffffffffffffffffffffff1673ffffffffffffffffffffffffffffffffffffffff1681526020019081526020016000206003015490505b81602001518261016001518361012001518461014001518496509650965096509650505091939590929450565b60606005600083815260200190815260200160002060080180548060200260200160405190810160405280929190818152602001828054801561324857602002820191906000526020600020905b8160009054906101000a900473ffffffffffffffffffffffffffffffffffffffff1673ffffffffffffffffffffffffffffffffffffffff16815260200190600101908083116131fe575b50505050509050919050565b60015481565b60035481565b60008054906101000a900473ffffffffffffffffffffffffffffffffffffffff1681565b60008060056000600154815260200190815260200160002060080180548060200260200160405190810160405280929190818152602001828054801561331f57602002820191906000526020600020905b8160009054906101000a900473ffffffffffffffffffffffffffffffffffffffff1673ffffffffffffffffffffffffffffffffffffffff16815260200190600101908083116132d5575b5050505050905060005b815181101561339c578373ffffffffffffffffffffffffffffffffffffffff1682828151811061335c5761335b614f16565b5b602002602001015173ffffffffffffffffffffffffffffffffffffffff16036133895780925050506133a3565b808061339490614b5e565b915050613329565b5060009150505b919050565b600060066000600154815260200190815260200160002060008373ffffffffffffffffffffffffffffffffffffffff1673ffffffffffffffffffffffffffffffffffffffff168152602001908152602001600020600101805461340a90614642565b80601f016020809104026020016040519081016040528092919081815260200182805461343690614642565b80156134835780601f1061345857610100808354040283529160200191613483565b820191906000526020600020905b81548152906001019060200180831161346657829003601f168201915b50505050509050600060066000600154815260200190815260200160002060008473ffffffffffffffffffffffffffffffffffffffff1673ffffffffffffffffffffffffffffffffffffffff1681526020019081526020016000206003015490508260056000600154815260200190815260200160002060090160006101000a81548173ffffffffffffffffffffffffffffffffffffffff021916908373ffffffffffffffffffffffffffffffffffffffff16021790555081600560006001548152602001908152602001600020600a019081613560919061481f565b5042600560006001548152602001908152602001600020600701819055506003600560006001548152602001908152602001600020600c0160006101000a81548160ff021916908360038111156135ba576135b96138e4565b5b02179055506008600154908060018154018082558091505060019003906000526020600020016000909190919091505560008060146101000a81548160ff0219169083600381111561360f5761360e6138e4565b5b02179055508273ffffffffffffffffffffffffffffffffffffffff166001547fa26d0c568919a4493837d892d9db62f573a84f1915090fad7a3d4ef50898d793848460405161365f929190614ba6565b60405180910390a3505050565b600080600090506000915060005b6005600060015481526020019081526020016000206008018054905081101561377457600060056000600154815260200190815260200160002060080182815481106136c9576136c8614f16565b5b9060005260206000200160009054906101000a900473ffffffffffffffffffffffffffffffffffffffff169050600060066000600154815260200190815260200160002060008373ffffffffffffffffffffffffffffffffffffffff1673ffffffffffffffffffffffffffffffffffffffff1681526020019081526020016000206003015490508381111561375f578093508194505b5050808061376c90614b5e565b91505061367a565b505090565b604051806101a00160405280600081526020016060815260200160608152602001600081526020016000815260200160008152602001600081526020016000815260200160008152602001600073ffffffffffffffffffffffffffffffffffffffff168152602001606081526020016000815260200160006003811115613803576138026138e4565b5b81525090565b828054828255906000526020600020908101928215613882579160200282015b828111156138815782518260006101000a81548173ffffffffffffffffffffffffffffffffffffffff021916908373ffffffffffffffffffffffffffffffffffffffff16021790555091602001919060010190613829565b5b50905061388f9190613893565b5090565b5b808211156138ac576000816000905550600101613894565b5090565b6000819050919050565b6138c3816138b0565b82525050565b60006020820190506138de60008301846138ba565b92915050565b7f4e487b7100000000000000000000000000000000000000000000000000000000600052602160045260246000fd5b60048110613924576139236138e4565b5b50565b600081905061393582613913565b919050565b600061394582613927565b9050919050565b6139558161393a565b82525050565b6000602082019050613970600083018461394c565b92915050565b6000604051905090565b600080fd5b600080fd5b600080fd5b600080fd5b6000601f19601f8301169050919050565b7f4e487b7100000000000000000000000000000000000000000000000000000000600052604160045260246000fd5b6139dd82613994565b810181811067ffffffffffffffff821117156139fc576139fb6139a5565b5b80604052505050565b6000613a0f613976565b9050613a1b82826139d4565b919050565b600067ffffffffffffffff821115613a3b57613a3a6139a5565b5b613a4482613994565b9050602081019050919050565b82818337600083830152505050565b6000613a73613a6e84613a20565b613a05565b905082815260208101848484011115613a8f57613a8e61398f565b5b613a9a848285613a51565b509392505050565b600082601f830112613ab757613ab661398a565b5b8135613ac7848260208601613a60565b91505092915050565b60008060408385031215613ae757613ae6613980565b5b600083013567ffffffffffffffff811115613b0557613b04613985565b5b613b1185828601613aa2565b925050602083013567ffffffffffffffff811115613b3257613b31613985565b5b613b3e85828601613aa2565b9150509250929050565b613b51816138b0565b8114613b5c57600080fd5b50565b600081359050613b6e81613b48565b92915050565b600060208284031215613b8a57613b89613980565b5b6000613b9884828501613b5f565b91505092915050565b600081519050919050565b600082825260208201905092915050565b60005b83811015613bdb578082015181840152602081019050613bc0565b60008484015250505050565b6000613bf282613ba1565b613bfc8185613bac565b9350613c0c818560208601613bbd565b613c1581613994565b840191505092915050565b600073ffffffffffffffffffffffffffffffffffffffff82169050919050565b6000613c4b82613c20565b9050919050565b613c5b81613c40565b82525050565b600061018082019050613c77600083018f6138ba565b8181036020830152613c89818e613be7565b90508181036040830152613c9d818d613be7565b9050613cac606083018c6138ba565b613cb9608083018b6138ba565b613cc660a083018a6138ba565b613cd360c08301896138ba565b613ce060e08301886138ba565b613cee610100830187613c52565b818103610120830152613d018186613be7565b9050613d116101408301856138ba565b613d1f61016083018461394c565b9d9c50505050505050505050505050565b613d39816138b0565b82525050565b600082825260208201905092915050565b6000613d5b82613ba1565b613d658185613d3f565b9350613d75818560208601613bbd565b613d7e81613994565b840191505092915050565b613d9281613c40565b82525050565b613da18161393a565b82525050565b60006101a083016000830151613dc06000860182613d30565b5060208301518482036020860152613dd88282613d50565b91505060408301518482036040860152613df28282613d50565b9150506060830151613e076060860182613d30565b506080830151613e1a6080860182613d30565b5060a0830151613e2d60a0860182613d30565b5060c0830151613e4060c0860182613d30565b5060e0830151613e5360e0860182613d30565b50610100830151613e68610100860182613d30565b50610120830151613e7d610120860182613d89565b50610140830151848203610140860152613e978282613d50565b915050610160830151613eae610160860182613d30565b50610180830151613ec3610180860182613d98565b508091505092915050565b60006020820190508181036000830152613ee88184613da7565b905092915050565b60008060008060808587031215613f0a57613f09613980565b5b600085013567ffffffffffffffff811115613f2857613f27613985565b5b613f3487828801613aa2565b945050602085013567ffffffffffffffff811115613f5557613f54613985565b5b613f6187828801613aa2565b9350506040613f7287828801613b5f565b9250506060613f8387828801613b5f565b91505092959194509250565b613f9881613c40565b8114613fa357600080fd5b50565b600081359050613fb581613f8f565b92915050565b60008060408385031215613fd257613fd1613980565b5b6000613fe085828601613b5f565b9250506020613ff185828601613fa6565b9150509250929050565b60008115159050919050565b61401081613ffb565b82525050565b600060208201905061402b6000830184614007565b92915050565b600060a0820190506140466000830188613c52565b81810360208301526140588187613be7565b9050818103604083015261406c8186613be7565b905061407b60608301856138ba565b6140886080830184614007565b9695505050505050565b6000602082840312156140a8576140a7613980565b5b60006140b684828501613fa6565b91505092915050565b600060608201905081810360008301526140d98186613be7565b905081810360208301526140ed8185613be7565b90506140fc60408301846138ba565b949350505050565b600081519050919050565b600082825260208201905092915050565b6000819050602082019050919050565b600061413c8383613d30565b60208301905092915050565b6000602082019050919050565b600061416082614104565b61416a818561410f565b935061417583614120565b8060005b838110156141a657815161418d8882614130565b975061419883614148565b925050600181019050614179565b5085935050505092915050565b600060208201905081810360008301526141cd8184614155565b905092915050565b60006040820190506141ea6000830185614007565b6141f760208301846138ba565b9392505050565b600081519050919050565b600082825260208201905092915050565b6000819050602082019050919050565b60006142368383613d50565b905092915050565b6000602082019050919050565b6000614256826141fe565b6142608185614209565b9350836020820285016142728561421a565b8060005b858110156142ae578484038952815161428f858261422a565b945061429a8361423e565b925060208a01995050600181019050614276565b50829750879550505050505092915050565b600081519050919050565b600082825260208201905092915050565b6000819050602082019050919050565b60006142f88383613d89565b60208301905092915050565b6000602082019050919050565b600061431c826142c0565b61432681856142cb565b9350614331836142dc565b8060005b8381101561436257815161434988826142ec565b975061435483614304565b925050600181019050614335565b5085935050505092915050565b600060a08201905081810360008301526143898188614155565b9050818103602083015261439d818761424b565b905081810360408301526143b18186614311565b905081810360608301526143c5818561424b565b905081810360808301526143d98184614155565b90509695505050505050565b600060a08201905081810360008301526143ff8188613be7565b905061440e60208301876138ba565b61441b6040830186613c52565b818103606083015261442d8185613be7565b905061443c60808301846138ba565b9695505050505050565b600060208201905081810360008301526144608184614311565b905092915050565b600060208201905061447d6000830184613c52565b92915050565b7f4f706572617a696f6e65206e6f6e2076616c696461206e656c6c6f207374617460008201527f6f20636f7272656e746500000000000000000000000000000000000000000000602082015250565b60006144df602a83613bac565b91506144ea82614483565b604082019050919050565b6000602082019050818103600083015261450e816144d2565b9050919050565b7f436f6d6d697373696f6e652064692072656769737472617a696f6e6520696e7360008201527f756666696369656e746500000000000000000000000000000000000000000000602082015250565b6000614571602a83613bac565b915061457c82614515565b604082019050919050565b600060208201905081810360008301526145a081614564565b9050919050565b7f43616e64696461746f2067696127207265676973747261746f00000000000000600082015250565b60006145dd601983613bac565b91506145e8826145a7565b602082019050919050565b6000602082019050818103600083015261460c816145d0565b9050919050565b7f4e487b7100000000000000000000000000000000000000000000000000000000600052602260045260246000fd5b6000600282049050600182168061465a57607f821691505b60208210810361466d5761466c614613565b5b50919050565b60008190508160005260206000209050919050565b60006020601f8301049050919050565b600082821b905092915050565b6000600883026146d57fffffffffffffffffffffffffffffffffffffffffffffffffffffffffffffffff82614698565b6146df8683614698565b95508019841693508086168417925050509392505050565b6000819050919050565b600061471c614717614712846138b0565b6146f7565b6138b0565b9050919050565b6000819050919050565b61473683614701565b61474a61474282614723565b8484546146a5565b825550505050565b600090565b61475f614752565b61476a81848461472d565b505050565b5b8181101561478e57614783600082614757565b600181019050614770565b5050565b601f8211156147d3576147a481614673565b6147ad84614688565b810160208510156147bc578190505b6147d06147c885614688565b83018261476f565b50505b505050565b600082821c905092915050565b60006147f6600019846008026147d8565b1980831691505092915050565b600061480f83836147e5565b9150826002028217905092915050565b61482882613ba1565b67ffffffffffffffff811115614841576148406139a5565b5b61484b8254614642565b614856828285614792565b600060209050601f8311600181146148895760008415614877578287015190505b6148818582614803565b8655506148e9565b601f19841661489786614673565b60005b828110156148bf5784890151825560018201915060208501945060208101905061489a565b868310156148dc57848901516148d8601f8916826147e5565b8355505b6001600288020188555050505b505050505050565b6000602082019050818103600083015261490b8184613be7565b905092915050565b7f536f6c6f206c27616d6d696e6973747261746f72652070756f2720657365677560008201527f697265207175657374612066756e7a696f6e6500000000000000000000000000602082015250565b600061496f603383613bac565b915061497a82614913565b604082019050919050565b6000602082019050818103600083015261499e81614962565b9050919050565b7f53616c646f20696e73756666696369656e746500000000000000000000000000600082015250565b60006149db601383613bac565b91506149e6826149a5565b602082019050919050565b60006020820190508181036000830152614a0a816149ce565b9050919050565b600081905092915050565b50565b6000614a2c600083614a11565b9150614a3782614a1c565b600082019050919050565b6000614a4d82614a1f565b9150819050919050565b7f54726173666572696d656e746f2066616c6c69746f0000000000000000000000600082015250565b6000614a8d601583613bac565b9150614a9882614a57565b602082019050919050565b60006020820190508181036000830152614abc81614a80565b9050919050565b7f494420766f74617a696f6e65206e6f6e2076616c69646f000000000000000000600082015250565b6000614af9601783613bac565b9150614b0482614ac3565b602082019050919050565b60006020820190508181036000830152614b2881614aec565b9050919050565b7f4e487b7100000000000000000000000000000000000000000000000000000000600052601160045260246000fd5b6000614b69826138b0565b91507fffffffffffffffffffffffffffffffffffffffffffffffffffffffffffffffff8203614b9b57614b9a614b2f565b5b600182019050919050565b60006040820190508181036000830152614bc08185613be7565b9050614bcf60208301846138ba565b9392505050565b7f436f6d6d697373696f6e6520646920766f746f20696e73756666696369656e7460008201527f6500000000000000000000000000000000000000000000000000000000000000602082015250565b6000614c32602183613bac565b9150614c3d82614bd6565b604082019050919050565b60006020820190508181036000830152614c6181614c25565b9050919050565b7f43616e64696461746f206e6f6e207265676973747261746f0000000000000000600082015250565b6000614c9e601883613bac565b9150614ca982614c68565b602082019050919050565b60006020820190508181036000830152614ccd81614c91565b9050919050565b7f486169206769612720766f7461746f0000000000000000000000000000000000600082015250565b6000614d0a600f83613bac565b9150614d1582614cd4565b602082019050919050565b60006020820190508181036000830152614d3981614cfd565b9050919050565b7f4e657373756e6120766f74617a696f6e65206174746976610000000000000000600082015250565b6000614d76601883613bac565b9150614d8182614d40565b602082019050919050565b60006020820190508181036000830152614da581614d69565b9050919050565b7f536572766f6e6f20616c6d656e6f206475652063616e64696461746900000000600082015250565b6000614de2601c83613bac565b9150614ded82614dac565b602082019050919050565b60006020820190508181036000830152614e1181614dd5565b9050919050565b7f496c206e756d65726f206d617373696d6f20646920766f74692064657665206560008201527f7373657265206d616767696f7265206469207a65726f00000000000000000000602082015250565b6000614e74603683613bac565b9150614e7f82614e18565b604082019050919050565b60006020820190508181036000830152614ea381614e67565b9050919050565b7f496e646972697a7a6f2061646d696e206e6f6e2076616c69646f000000000000600082015250565b6000614ee0601a83613bac565b9150614eeb82614eaa565b602082019050919050565b60006020820190508181036000830152614f0f81614ed3565b9050919050565b7f4e487b7100000000000000000000000000000000000000000000000000000000600052603260045260246000fd5b7f566f74617a696f6e65206e6f6e20636f6d706c65746174610000000000000000600082015250565b6000614f7b601883613bac565b9150614f8682614f45565b602082019050919050565b60006020820190508181036000830152614faa81614f6e565b905091905056fea26469706673582212203729791a6766e10b8b674c02d5b3f43defcd6373000e37cef90e3b64a4266e0364736f6c63430008120033",
  "immutableReferences": {},
  "source": "// SPDX-License-Identifier: MIT\npragma solidity ^0.8.18;\n\n/**\n * @title AdvancedVotingSystem\n * @dev Un sistema di votazione avanzato che permette:\n * - Una sola votazione attiva alla volta\n * - Iscrizione dei candidati con pagamento di commissione\n * - Amministrazione delle fasi di votazione\n * - Votazione con commissione\n * - Termina quando un candidato raggiunge numero di voti specificato o amministratore chiude\n * - Storico delle votazioni passate\n */\ncontract AdvancedVotingSystem {\n    // Strutture dati\n    enum VotingState { Inactive, Registration, Voting, Completed }\n    \n    struct Candidate {\n        address candidateAddress;\n        string name;\n        string proposal;\n        uint256 voteCount;\n        bool isRegistered;\n    }\n    \n    struct Voter {\n        bool hasVoted;\n        uint256 votedFor; // Indice del candidato votato\n    }\n    \n    struct VotingSession {\n        uint256 id;\n        string title;\n        string description;\n        uint256 registrationFee; // Commissione C1\n        uint256 votingFee; // Commissione C2\n        uint256 maxVotesRequired; // Numero massimo di voti M\n        uint256 startTimestamp;\n        uint256 endTimestamp;\n        address[] candidateAddresses;\n        address winner;\n        string winnerName;\n        uint256 totalVotes;\n        VotingState state;\n    }\n    \n    // Variabili di stato\n    address public admin;\n    VotingState public currentState;\n    uint256 public currentVotingId;\n    uint256 public registrationFee; // Commissione C1\n    uint256 public votingFee; // Commissione C2\n    uint256 public maxVotesRequired; // Numero massimo di voti M\n    \n    mapping(uint256 => VotingSession) public votingSessions; // ID => sessione\n    mapping(uint256 => mapping(address => Candidate)) public candidates; // ID => address => candidato\n    mapping(uint256 => mapping(address => Voter)) public voters; // ID => address => votante\n    uint256[] public pastVotingIds; // Elenco di tutti gli ID delle sessioni passate\n    \n    // Eventi\n    event VotingSessionCreated(uint256 indexed votingId, string title, uint256 timestamp);\n    event CandidateRegistered(uint256 indexed votingId, address indexed candidate, string name);\n    event RegistrationClosed(uint256 indexed votingId, uint256 timestamp);\n    event VoteCast(uint256 indexed votingId, address indexed voter, address indexed candidate);\n    event VotingCompleted(uint256 indexed votingId, address indexed winner, string winnerName, uint256 voteCount);\n    event VotingCancelled(uint256 indexed votingId, uint256 timestamp);\n    event FundsWithdrawn(address indexed to, uint256 amount);\n    \n    // Modificatori\n    modifier onlyAdmin() {\n        require(msg.sender == admin, \"Solo l'amministratore puo' eseguire questa funzione\");\n        _;\n    }\n    \n    modifier inState(VotingState state) {\n        require(currentState == state, \"Operazione non valida nello stato corrente\");\n        _;\n    }\n    \n    /**\n     * @dev Costruttore\n     */\n    constructor() {\n        admin = msg.sender;\n        currentState = VotingState.Inactive;\n        currentVotingId = 0;\n    }\n    \n    /**\n     * @dev Crea una nuova sessione di votazione (solo se non ce ne sono altre attive)\n     * @param title Titolo della votazione\n     * @param description Descrizione della votazione\n     * @param _registrationFee Commissione per la registrazione dei candidati\n     * @param _votingFee Commissione per votare\n     */\n    function createVotingSession(\n        string memory title,\n        string memory description,\n        uint256 _registrationFee,\n        uint256 _votingFee\n    ) \n        external \n        onlyAdmin \n        inState(VotingState.Inactive)\n    {\n        currentVotingId++;\n        registrationFee = _registrationFee;\n        votingFee = _votingFee;\n        \n        votingSessions[currentVotingId] = VotingSession({\n            id: currentVotingId,\n            title: title,\n            description: description,\n            registrationFee: _registrationFee,\n            votingFee: _votingFee,\n            maxVotesRequired: 0, // Sar impostato quando si chiude la registrazione\n            startTimestamp: block.timestamp,\n            endTimestamp: 0, // Sar impostato quando termina la votazione\n            candidateAddresses: new address[](0),\n            winner: address(0),\n            winnerName: \"\",\n            totalVotes: 0,\n            state: VotingState.Registration\n        });\n        \n        currentState = VotingState.Registration;\n        \n        emit VotingSessionCreated(currentVotingId, title, block.timestamp);\n    }\n    \n    /**\n     * @dev Registra un candidato (solo durante la fase di registrazione)\n     * @param name Nome del candidato\n     * @param proposal Proposta del candidato\n     */\n    function registerCandidate(string memory name, string memory proposal) \n        external \n        payable \n        inState(VotingState.Registration)\n    {\n        require(msg.value >= registrationFee, \"Commissione di registrazione insufficiente\");\n        require(!candidates[currentVotingId][msg.sender].isRegistered, \"Candidato gia' registrato\");\n        \n        // Registra il candidato\n        candidates[currentVotingId][msg.sender] = Candidate({\n            candidateAddress: msg.sender,\n            name: name,\n            proposal: proposal,\n            voteCount: 0,\n            isRegistered: true\n        });\n        \n        // Aggiungi l'indirizzo del candidato all'array nella sessione\n        votingSessions[currentVotingId].candidateAddresses.push(msg.sender);\n        \n        emit CandidateRegistered(currentVotingId, msg.sender, name);\n    }\n    \n    /**\n     * @dev Chiude la fase di registrazione e inizia la fase di votazione\n     * @param _maxVotesRequired Numero di voti necessari per vincere\n     */\n    function closeRegistrationAndStartVoting(uint256 _maxVotesRequired) \n        external \n        onlyAdmin \n        inState(VotingState.Registration)\n    {\n        require(votingSessions[currentVotingId].candidateAddresses.length > 1, \"Servono almeno due candidati\");\n        require(_maxVotesRequired > 0, \"Il numero massimo di voti deve essere maggiore di zero\");\n        \n        maxVotesRequired = _maxVotesRequired;\n        votingSessions[currentVotingId].maxVotesRequired = _maxVotesRequired;\n        currentState = VotingState.Voting;\n        \n        emit RegistrationClosed(currentVotingId, block.timestamp);\n    }\n    \n    /**\n     * @dev Esprime un voto per un candidato\n     * @param candidateAddress Indirizzo del candidato\n     */\n    function vote(address candidateAddress) \n        external \n        payable \n        inState(VotingState.Voting)\n    {\n        require(msg.value >= votingFee, \"Commissione di voto insufficiente\");\n        require(candidates[currentVotingId][candidateAddress].isRegistered, \"Candidato non registrato\");\n        require(!voters[currentVotingId][msg.sender].hasVoted, \"Hai gia' votato\");\n        \n        // Registra il voto\n        voters[currentVotingId][msg.sender] = Voter({\n            hasVoted: true,\n            votedFor: findCandidateIndex(candidateAddress)\n        });\n        \n        // Incrementa il conteggio dei voti\n        candidates[currentVotingId][candidateAddress].voteCount++;\n        votingSessions[currentVotingId].totalVotes++;\n        \n        emit VoteCast(currentVotingId, msg.sender, candidateAddress);\n        \n        // Controlla se il candidato ha raggiunto il numero massimo di voti\n        if (candidates[currentVotingId][candidateAddress].voteCount >= maxVotesRequired) {\n            completeVoting(candidateAddress);\n        }\n    }\n    \n    /**\n     * @dev Termina manualmente la votazione (se non  stato raggiunto il massimo)\n     */\n    function endVoting() \n        external \n        onlyAdmin \n        inState(VotingState.Voting)\n    {\n        // Trova il candidato con pi voti\n        address winningCandidate = determineWinner();\n        completeVoting(winningCandidate);\n    }\n    \n    /**\n     * @dev Determina il vincitore della votazione corrente\n     * @return winningCandidate Indirizzo del candidato vincitore\n     */\n    function determineWinner() \n        private \n        view \n        returns (address winningCandidate)\n    {\n        uint256 highestVotes = 0;\n        winningCandidate = address(0);\n        \n        for (uint256 i = 0; i < votingSessions[currentVotingId].candidateAddresses.length; i++) {\n            address candidateAddress = votingSessions[currentVotingId].candidateAddresses[i];\n            uint256 voteCount = candidates[currentVotingId][candidateAddress].voteCount;\n            \n            if (voteCount > highestVotes) {\n                highestVotes = voteCount;\n                winningCandidate = candidateAddress;\n            }\n        }\n        \n        return winningCandidate;\n    }\n    \n    /**\n     * @dev Completa la votazione e registra il vincitore\n     * @param winningCandidate Indirizzo del candidato vincitore\n     */\n    function completeVoting(address winningCandidate) \n        private \n    {\n        string memory winnerName = candidates[currentVotingId][winningCandidate].name;\n        uint256 voteCount = candidates[currentVotingId][winningCandidate].voteCount;\n        \n        votingSessions[currentVotingId].winner = winningCandidate;\n        votingSessions[currentVotingId].winnerName = winnerName;\n        votingSessions[currentVotingId].endTimestamp = block.timestamp;\n        votingSessions[currentVotingId].state = VotingState.Completed;\n        \n        pastVotingIds.push(currentVotingId);\n        currentState = VotingState.Inactive;\n        \n        emit VotingCompleted(currentVotingId, winningCandidate, winnerName, voteCount);\n    }\n    \n    /**\n     * @dev Cancella una votazione in corso (solo admin)\n     */\n    function cancelVoting() \n        external \n        onlyAdmin\n    {\n        require(currentState != VotingState.Inactive, \"Nessuna votazione attiva\");\n        \n        votingSessions[currentVotingId].state = VotingState.Completed;\n        votingSessions[currentVotingId].endTimestamp = block.timestamp;\n        pastVotingIds.push(currentVotingId);\n        \n        currentState = VotingState.Inactive;\n        \n        emit VotingCancelled(currentVotingId, block.timestamp);\n    }\n    \n    /**\n     * @dev Prelievo dei fondi (solo admin)\n     * @param amount Importo da prelevare\n     */\n    function withdrawFunds(uint256 amount) \n        external \n        onlyAdmin\n    {\n        require(amount <= address(this).balance, \"Saldo insufficiente\");\n        \n        (bool success, ) = admin.call{value: amount}(\"\");\n        require(success, \"Trasferimento fallito\");\n        \n        emit FundsWithdrawn(admin, amount);\n    }\n    \n    /**\n     * @dev Ottiene i dettagli di un candidato\n     * @param votingId ID della sessione di voto\n     * @param candidateAddress Indirizzo del candidato\n     * @return name Nome del candidato\n     * @return proposal Proposta del candidato\n     * @return voteCount Numero di voti ricevuti\n     */\n    function getCandidateDetails(uint256 votingId, address candidateAddress) \n        external \n        view \n        returns (string memory name, string memory proposal, uint256 voteCount)\n    {\n        require(candidates[votingId][candidateAddress].isRegistered, \"Candidato non registrato\");\n        \n        Candidate memory candidate = candidates[votingId][candidateAddress];\n        return (candidate.name, candidate.proposal, candidate.voteCount);\n    }\n    \n    /**\n     * @dev Ottiene l'elenco dei candidati per una sessione di voto\n     * @param votingId ID della sessione di voto\n     * @return candidatesList Elenco di indirizzi dei candidati\n     */\n    function getCandidatesList(uint256 votingId) \n        external \n        view \n        returns (address[] memory candidatesList)\n    {\n        return votingSessions[votingId].candidateAddresses;\n    }\n    \n    /**\n     * @dev Controlla se un votante ha gi votato\n     * @param votingId ID della sessione di voto\n     * @param voterAddress Indirizzo del votante\n     * @return hasVotedStatus True se ha gi votato, false altrimenti\n     */\n    function hasVoted(uint256 votingId, address voterAddress) \n        external \n        view \n        returns (bool hasVotedStatus)\n    {\n        return voters[votingId][voterAddress].hasVoted;\n    }\n    \n    /**\n     * @dev Ottiene l'ID della votazione corrente\n     * @return currentId ID della votazione corrente o 0 se non ce ne sono\n     */\n    function getCurrentVotingId() \n        external \n        view \n        returns (uint256 currentId)\n    {\n        if (currentState == VotingState.Inactive) {\n            return 0;\n        }\n        return currentVotingId;\n    }\n    \n    /**\n     * @dev Ottiene lo stato corrente del sistema\n     * @return state Stato corrente (inattivo, registrazione, votazione, completato)\n     */\n    function getCurrentState() \n        external \n        view \n        returns (VotingState state)\n    {\n        return currentState;\n    }\n    \n    /**\n     * @dev Ottiene l'elenco di tutte le votazioni passate\n     * @return pastIds Elenco di ID delle votazioni passate\n     */\n    function getPastVotingSessions() \n        external \n        view \n        returns (uint256[] memory pastIds)\n    {\n        return pastVotingIds;\n    }\n    \n    /**\n     * @dev Ottiene i risultati di una votazione specifica\n     * @param votingId ID della sessione di voto\n     * @return title Titolo della votazione\n     * @return totalVotes Numero totale di voti espressi\n     * @return winner Indirizzo del vincitore\n     * @return winnerName Nome del vincitore\n     * @return voteCount Numero di voti del vincitore\n     */\n    function getVotingResults(uint256 votingId) \n        external \n        view \n        returns (\n            string memory title,\n            uint256 totalVotes,\n            address winner,\n            string memory winnerName,\n            uint256 voteCount\n        )\n    {\n        require(votingId > 0 && votingId <= currentVotingId, \"ID votazione non valido\");\n        require(votingSessions[votingId].state == VotingState.Completed, \"Votazione non completata\");\n        \n        VotingSession memory session = votingSessions[votingId];\n        uint256 winnerVotes = 0;\n        \n        if (session.winner != address(0)) {\n            winnerVotes = candidates[votingId][session.winner].voteCount;\n        }\n        \n        return (\n            session.title,\n            session.totalVotes,\n            session.winner,\n            session.winnerName,\n            winnerVotes\n        );\n    }\n        \n    // Aggiungi questa struct al contratto\n    struct VotingSessionDetails {\n        uint256 id;\n        string title;\n        string description;\n        uint256 registrationFee;\n        uint256 votingFee;\n        uint256 maxVotesRequired;\n        uint256 startTimestamp;\n        uint256 endTimestamp;\n        uint256 totalCandidates;\n        address winner;\n        string winnerName;\n        uint256 totalVotes;\n        VotingState state;\n    }\n\n    // Modifica la funzione per usare la struct\n    function getVotingSessionDetails(uint256 votingId) \n        external \n        view \n        returns (VotingSessionDetails memory)\n    {\n        require(votingId > 0 && votingId <= currentVotingId, \"ID votazione non valido\");\n        \n        VotingSession storage session = votingSessions[votingId];\n        \n        return VotingSessionDetails({\n            id: session.id,\n            title: session.title,\n            description: session.description,\n            registrationFee: session.registrationFee,\n            votingFee: session.votingFee,\n            maxVotesRequired: session.maxVotesRequired,\n            startTimestamp: session.startTimestamp,\n            endTimestamp: session.endTimestamp,\n            totalCandidates: session.candidateAddresses.length,\n            winner: session.winner,\n            winnerName: session.winnerName,\n            totalVotes: session.totalVotes,\n            state: session.state\n        });\n    }\n    \n    /**\n     * @dev Ottiene l'elenco completo delle votazioni passate con i rispettivi risultati\n     * @return votingIds Elenco degli ID delle votazioni\n     * @return titles Elenco dei titoli delle votazioni\n     * @return winners Elenco degli indirizzi dei vincitori\n     * @return winnerNames Elenco dei nomi dei vincitori\n     * @return voteCounts Elenco dei voti dei vincitori\n     */\n    function getAllPastVotingResults() \n        external \n        view \n        returns (\n            uint256[] memory votingIds,\n            string[] memory titles,\n            address[] memory winners,\n            string[] memory winnerNames,\n            uint256[] memory voteCounts\n        )\n    {\n        uint256 count = pastVotingIds.length;\n        \n        votingIds = new uint256[](count);\n        titles = new string[](count);\n        winners = new address[](count);\n        winnerNames = new string[](count);\n        voteCounts = new uint256[](count);\n        \n        for (uint256 i = 0; i < count; i++) {\n            uint256 votingId = pastVotingIds[i];\n            VotingSession memory session = votingSessions[votingId];\n            \n            votingIds[i] = votingId;\n            titles[i] = session.title;\n            winners[i] = session.winner;\n            winnerNames[i] = session.winnerName;\n            \n            if (session.winner != address(0)) {\n                voteCounts[i] = candidates[votingId][session.winner].voteCount;\n            } else {\n                voteCounts[i] = 0;\n            }\n        }\n        \n        return (votingIds, titles, winners, winnerNames, voteCounts);\n    }\n    \n    /**\n     * @dev Trova l'indice di un candidato nell'array candidateAddresses\n     * @param candidateAddress Indirizzo del candidato\n     * @return candidateIndex Indice del candidato o 0 se non trovato\n     */\n    function findCandidateIndex(address candidateAddress) \n        private \n        view \n        returns (uint256 candidateIndex)\n    {\n        address[] memory addresses = votingSessions[currentVotingId].candidateAddresses;\n        \n        for (uint256 i = 0; i < addresses.length; i++) {\n            if (addresses[i] == candidateAddress) {\n                return i;\n            }\n        }\n        \n        return 0; // Non dovrebbe mai verificarsi se il candidato  registrato\n    }\n    \n    /**\n     * @dev Restituisce il saldo del contratto\n     * @return balance Saldo corrente in wei\n     */\n    function getBalance() \n        external \n        view \n        onlyAdmin \n        returns (uint256 balance)\n    {\n        return address(this).balance;\n    }\n    \n    /**\n     * @dev Cambia l'amministratore del contratto\n     * @param newAdmin Indirizzo del nuovo amministratore\n     */\n    function changeAdmin(address newAdmin) \n        external \n        onlyAdmin\n    {\n        require(newAdmin != address(0), \"Indirizzo admin non valido\");\n        admin = newAdmin;\n    }\n}",
  "sourcePath": "/mnt/Dati/Workspace/BlockChainExamples/SoliditySmartContract06VotationsV2/contracts/votations.sol",
  "compiler": {
    "name": "solc",
    "version": "0.8.18+commit.87f61d96.Emscripten.clang"
  },
  "schemaVersion": "3.4.16",
  "updatedAt": "2025-03-25T16:30:51.884Z",
  "networkType": "ethereum",
  "devdoc": {
    "details": "Un sistema di votazione avanzato che permette: - Una sola votazione attiva alla volta - Iscrizione dei candidati con pagamento di commissione - Amministrazione delle fasi di votazione - Votazione con commissione - Termina quando un candidato raggiunge numero di voti specificato o amministratore chiude - Storico delle votazioni passate",
    "kind": "dev",
    "methods": {
      "cancelVoting()": {
        "details": "Cancella una votazione in corso (solo admin)"
      },
      "changeAdmin(address)": {
        "details": "Cambia l'amministratore del contratto",
        "params": {
          "newAdmin": "Indirizzo del nuovo amministratore"
        }
      },
      "closeRegistrationAndStartVoting(uint256)": {
        "details": "Chiude la fase di registrazione e inizia la fase di votazione",
        "params": {
          "_maxVotesRequired": "Numero di voti necessari per vincere"
        }
      },
      "constructor": {
        "details": "Costruttore"
      },
      "createVotingSession(string,string,uint256,uint256)": {
        "details": "Crea una nuova sessione di votazione (solo se non ce ne sono altre attive)",
        "params": {
          "_registrationFee": "Commissione per la registrazione dei candidati",
          "_votingFee": "Commissione per votare",
          "description": "Descrizione della votazione",
          "title": "Titolo della votazione"
        }
      },
      "endVoting()": {
        "details": "Termina manualmente la votazione (se non  stato raggiunto il massimo)"
      },
      "getAllPastVotingResults()": {
        "details": "Ottiene l'elenco completo delle votazioni passate con i rispettivi risultati",
        "returns": {
          "titles": "Elenco dei titoli delle votazioni",
          "voteCounts": "Elenco dei voti dei vincitori",
          "votingIds": "Elenco degli ID delle votazioni",
          "winnerNames": "Elenco dei nomi dei vincitori",
          "winners": "Elenco degli indirizzi dei vincitori"
        }
      },
      "getBalance()": {
        "details": "Restituisce il saldo del contratto",
        "returns": {
          "balance": "Saldo corrente in wei"
        }
      },
      "getCandidateDetails(uint256,address)": {
        "details": "Ottiene i dettagli di un candidato",
        "params": {
          "candidateAddress": "Indirizzo del candidato",
          "votingId": "ID della sessione di voto"
        },
        "returns": {
          "name": "Nome del candidato",
          "proposal": "Proposta del candidato",
          "voteCount": "Numero di voti ricevuti"
        }
      },
      "getCandidatesList(uint256)": {
        "details": "Ottiene l'elenco dei candidati per una sessione di voto",
        "params": {
          "votingId": "ID della sessione di voto"
        },
        "returns": {
          "candidatesList": "Elenco di indirizzi dei candidati"
        }
      },
      "getCurrentState()": {
        "details": "Ottiene lo stato corrente del sistema",
        "returns": {
          "state": "Stato corrente (inattivo, registrazione, votazione, completato)"
        }
      },
      "getCurrentVotingId()": {
        "details": "Ottiene l'ID della votazione corrente",
        "returns": {
          "currentId": "ID della votazione corrente o 0 se non ce ne sono"
        }
      },
      "getPastVotingSessions()": {
        "details": "Ottiene l'elenco di tutte le votazioni passate",
        "returns": {
          "pastIds": "Elenco di ID delle votazioni passate"
        }
      },
      "getVotingResults(uint256)": {
        "details": "Ottiene i risultati di una votazione specifica",
        "params": {
          "votingId": "ID della sessione di voto"
        },
        "returns": {
          "title": "Titolo della votazione",
          "totalVotes": "Numero totale di voti espressi",
          "voteCount": "Numero di voti del vincitore",
          "winner": "Indirizzo del vincitore",
          "winnerName": "Nome del vincitore"
        }
      },
      "hasVoted(uint256,address)": {
        "details": "Controlla se un votante ha gi votato",
        "params": {
          "voterAddress": "Indirizzo del votante",
          "votingId": "ID della sessione di voto"
        },
        "returns": {
          "hasVotedStatus": "True se ha gi votato, false altrimenti"
        }
      },
      "registerCandidate(string,string)": {
        "details": "Registra un candidato (solo durante la fase di registrazione)",
        "params": {
          "name": "Nome del candidato",
          "proposal": "Proposta del candidato"
        }
      },
      "vote(address)": {
        "details": "Esprime un voto per un candidato",
        "params": {
          "candidateAddress": "Indirizzo del candidato"
        }
      },
      "withdrawFunds(uint256)": {
        "details": "Prelievo dei fondi (solo admin)",
        "params": {
          "amount": "Importo da prelevare"
        }
      }
    },
    "title": "AdvancedVotingSystem",
    "version": 1
  },
  "userdoc": {
    "kind": "user",
    "methods": {},
    "version": 1
  }
}