{
  "contractName": "SimpleNFT",
  "abi": [
    {
      "inputs": [
        {
          "internalType": "string",
          "name": "_name",
          "type": "string"
        },
        {
          "internalType": "string",
          "name": "_symbol",
          "type": "string"
        }
      ],
      "stateMutability": "nonpayable",
      "type": "constructor"
    },
    {
      "anonymous": false,
      "inputs": [
        {
          "indexed": true,
          "internalType": "address",
          "name": "owner",
          "type": "address"
        },
        {
          "indexed": true,
          "internalType": "address",
          "name": "approved",
          "type": "address"
        },
        {
          "indexed": true,
          "internalType": "uint256",
          "name": "tokenId",
          "type": "uint256"
        }
      ],
      "name": "Approval",
      "type": "event"
    },
    {
      "anonymous": false,
      "inputs": [
        {
          "indexed": true,
          "internalType": "address",
          "name": "owner",
          "type": "address"
        },
        {
          "indexed": true,
          "internalType": "address",
          "name": "operator",
          "type": "address"
        },
        {
          "indexed": false,
          "internalType": "bool",
          "name": "approved",
          "type": "bool"
        }
      ],
      "name": "ApprovalForAll",
      "type": "event"
    },
    {
      "anonymous": false,
      "inputs": [
        {
          "indexed": true,
          "internalType": "address",
          "name": "from",
          "type": "address"
        },
        {
          "indexed": true,
          "internalType": "address",
          "name": "to",
          "type": "address"
        },
        {
          "indexed": true,
          "internalType": "uint256",
          "name": "tokenId",
          "type": "uint256"
        }
      ],
      "name": "Transfer",
      "type": "event"
    },
    {
      "inputs": [],
      "name": "name",
      "outputs": [
        {
          "internalType": "string",
          "name": "",
          "type": "string"
        }
      ],
      "stateMutability": "view",
      "type": "function",
      "constant": true
    },
    {
      "inputs": [],
      "name": "symbol",
      "outputs": [
        {
          "internalType": "string",
          "name": "",
          "type": "string"
        }
      ],
      "stateMutability": "view",
      "type": "function",
      "constant": true
    },
    {
      "inputs": [
        {
          "internalType": "address",
          "name": "owner",
          "type": "address"
        }
      ],
      "name": "balanceOf",
      "outputs": [
        {
          "internalType": "uint256",
          "name": "",
          "type": "uint256"
        }
      ],
      "stateMutability": "view",
      "type": "function",
      "constant": true
    },
    {
      "inputs": [
        {
          "internalType": "uint256",
          "name": "tokenId",
          "type": "uint256"
        }
      ],
      "name": "ownerOf",
      "outputs": [
        {
          "internalType": "address",
          "name": "",
          "type": "address"
        }
      ],
      "stateMutability": "view",
      "type": "function",
      "constant": true
    },
    {
      "inputs": [
        {
          "internalType": "uint256",
          "name": "tokenId",
          "type": "uint256"
        }
      ],
      "name": "tokenURI",
      "outputs": [
        {
          "internalType": "string",
          "name": "",
          "type": "string"
        }
      ],
      "stateMutability": "view",
      "type": "function",
      "constant": true
    },
    {
      "inputs": [
        {
          "internalType": "address",
          "name": "to",
          "type": "address"
        },
        {
          "internalType": "string",
          "name": "uri",
          "type": "string"
        }
      ],
      "name": "mint",
      "outputs": [
        {
          "internalType": "uint256",
          "name": "",
          "type": "uint256"
        }
      ],
      "stateMutability": "nonpayable",
      "type": "function"
    },
    {
      "inputs": [
        {
          "internalType": "address",
          "name": "from",
          "type": "address"
        },
        {
          "internalType": "address",
          "name": "to",
          "type": "address"
        },
        {
          "internalType": "uint256",
          "name": "tokenId",
          "type": "uint256"
        }
      ],
      "name": "transferFrom",
      "outputs": [],
      "stateMutability": "nonpayable",
      "type": "function"
    },
    {
      "inputs": [
        {
          "internalType": "address",
          "name": "to",
          "type": "address"
        },
        {
          "internalType": "uint256",
          "name": "tokenId",
          "type": "uint256"
        }
      ],
      "name": "approve",
      "outputs": [],
      "stateMutability": "nonpayable",
      "type": "function"
    },
    {
      "inputs": [
        {
          "internalType": "uint256",
          "name": "tokenId",
          "type": "uint256"
        }
      ],
      "name": "getApproved",
      "outputs": [
        {
          "internalType": "address",
          "name": "",
          "type": "address"
        }
      ],
      "stateMutability": "view",
      "type": "function",
      "constant": true
    },
    {
      "inputs": [
        {
          "internalType": "address",
          "name": "operator",
          "type": "address"
        },
        {
          "internalType": "bool",
          "name": "approved",
          "type": "bool"
        }
      ],
      "name": "setApprovalForAll",
      "outputs": [],
      "stateMutability": "nonpayable",
      "type": "function"
    },
    {
      "inputs": [
        {
          "internalType": "address",
          "name": "owner",
          "type": "address"
        },
        {
          "internalType": "address",
          "name": "operator",
          "type": "address"
        }
      ],
      "name": "isApprovedForAll",
      "outputs": [
        {
          "internalType": "bool",
          "name": "",
          "type": "bool"
        }
      ],
      "stateMutability": "view",
      "type": "function",
      "constant": true
    }
  ],
  "bytecode": "0x60806040523480156200001157600080fd5b50604051620024ef380380620024ef8339818101604052810190620000379190620001fe565b8160009081620000489190620004ce565b5080600190816200005a9190620004ce565b5060006002819055505050620005b5565b6000604051905090565b600080fd5b600080fd5b600080fd5b600080fd5b6000601f19601f8301169050919050565b7f4e487b7100000000000000000000000000000000000000000000000000000000600052604160045260246000fd5b620000d48262000089565b810181811067ffffffffffffffff82111715620000f657620000f56200009a565b5b80604052505050565b60006200010b6200006b565b9050620001198282620000c9565b919050565b600067ffffffffffffffff8211156200013c576200013b6200009a565b5b620001478262000089565b9050602081019050919050565b60005b838110156200017457808201518184015260208101905062000157565b60008484015250505050565b60006200019762000191846200011e565b620000ff565b905082815260208101848484011115620001b657620001b562000084565b5b620001c384828562000154565b509392505050565b600082601f830112620001e357620001e26200007f565b5b8151620001f584826020860162000180565b91505092915050565b6000806040838503121562000218576200021762000075565b5b600083015167ffffffffffffffff8111156200023957620002386200007a565b5b6200024785828601620001cb565b925050602083015167ffffffffffffffff8111156200026b576200026a6200007a565b5b6200027985828601620001cb565b9150509250929050565b600081519050919050565b7f4e487b7100000000000000000000000000000000000000000000000000000000600052602260045260246000fd5b60006002820490506001821680620002d657607f821691505b602082108103620002ec57620002eb6200028e565b5b50919050565b60008190508160005260206000209050919050565b60006020601f8301049050919050565b600082821b905092915050565b600060088302620003567fffffffffffffffffffffffffffffffffffffffffffffffffffffffffffffffff8262000317565b62000362868362000317565b95508019841693508086168417925050509392505050565b6000819050919050565b6000819050919050565b6000620003af620003a9620003a3846200037a565b62000384565b6200037a565b9050919050565b6000819050919050565b620003cb836200038e565b620003e3620003da82620003b6565b84845462000324565b825550505050565b600090565b620003fa620003eb565b62000407818484620003c0565b505050565b5b818110156200042f5762000423600082620003f0565b6001810190506200040d565b5050565b601f8211156200047e576200044881620002f2565b620004538462000307565b8101602085101562000463578190505b6200047b620004728562000307565b8301826200040c565b50505b505050565b600082821c905092915050565b6000620004a36000198460080262000483565b1980831691505092915050565b6000620004be838362000490565b9150826002028217905092915050565b620004d98262000283565b67ffffffffffffffff811115620004f557620004f46200009a565b5b620005018254620002bd565b6200050e82828562000433565b600060209050601f83116001811462000546576000841562000531578287015190505b6200053d8582620004b0565b865550620005ad565b601f1984166200055686620002f2565b60005b82811015620005805784890151825560018201915060208501945060208101905062000559565b86831015620005a057848901516200059c601f89168262000490565b8355505b6001600288020188555050505b505050505050565b611f2a80620005c56000396000f3fe608060405234801561001057600080fd5b50600436106100a95760003560e01c806370a082311161007157806370a082311461016457806395d89b4114610194578063a22cb465146101b2578063c87b56dd146101ce578063d0def521146101fe578063e985e9c51461022e576100a9565b806306fdde03146100ae578063081812fc146100cc578063095ea7b3146100fc57806323b872dd146101185780636352211e14610134575b600080fd5b6100b661025e565b6040516100c3919061106c565b60405180910390f35b6100e660048036038101906100e191906110d8565b6102ec565b6040516100f39190611146565b60405180910390f35b6101166004803603810190610111919061118d565b610371565b005b610132600480360381019061012d91906111cd565b61047a565b005b61014e600480360381019061014991906110d8565b61073a565b60405161015b9190611146565b60405180910390f35b61017e60048036038101906101799190611220565b6107eb565b60405161018b919061125c565b60405180910390f35b61019c6108a2565b6040516101a9919061106c565b60405180910390f35b6101cc60048036038101906101c791906112af565b610930565b005b6101e860048036038101906101e391906110d8565b610a9b565b6040516101f5919061106c565b60405180910390f35b61021860048036038101906102139190611424565b610b88565b604051610225919061125c565b60405180910390f35b61024860048036038101906102439190611480565b610d45565b60405161025591906114cf565b60405180910390f35b6000805461026b90611519565b80601f016020809104026020016040519081016040528092919081815260200182805461029790611519565b80156102e45780601f106102b9576101008083540402835291602001916102e4565b820191906000526020600020905b8154815290600101906020018083116102c757829003601f168201915b505050505081565b60006102f782610dd9565b610336576040517f08c379a000000000000000000000000000000000000000000000000000000000815260040161032d906115bc565b60405180910390fd5b6006600083815260200190815260200160002060009054906101000a900473ffffffffffffffffffffffffffffffffffffffff169050919050565b600061037c8261073a565b90508073ffffffffffffffffffffffffffffffffffffffff168373ffffffffffffffffffffffffffffffffffffffff16036103ec576040517f08c379a00000000000000000000000000000000000000000000000000000000081526004016103e39061164e565b60405180910390fd5b8073ffffffffffffffffffffffffffffffffffffffff163373ffffffffffffffffffffffffffffffffffffffff16148061042c575061042b8133610d45565b5b61046b576040517f08c379a0000000000000000000000000000000000000000000000000000000008152600401610462906116e0565b60405180910390fd5b6104758383610e45565b505050565b6104843382610efe565b6104c3576040517f08c379a00000000000000000000000000000000000000000000000000000000081526004016104ba90611772565b60405180910390fd5b600073ffffffffffffffffffffffffffffffffffffffff168273ffffffffffffffffffffffffffffffffffffffff1603610532576040517f08c379a000000000000000000000000000000000000000000000000000000000815260040161052990611804565b60405180910390fd5b8273ffffffffffffffffffffffffffffffffffffffff166003600083815260200190815260200160002060009054906101000a900473ffffffffffffffffffffffffffffffffffffffff1673ffffffffffffffffffffffffffffffffffffffff16146105d3576040517f08c379a00000000000000000000000000000000000000000000000000000000081526004016105ca90611896565b60405180910390fd5b6105de600082610e45565b600460008473ffffffffffffffffffffffffffffffffffffffff1673ffffffffffffffffffffffffffffffffffffffff168152602001908152602001600020600081548092919061062e906118e5565b9190505550600460008373ffffffffffffffffffffffffffffffffffffffff1673ffffffffffffffffffffffffffffffffffffffff16815260200190815260200160002060008154809291906106839061190e565b9190505550816003600083815260200190815260200160002060006101000a81548173ffffffffffffffffffffffffffffffffffffffff021916908373ffffffffffffffffffffffffffffffffffffffff160217905550808273ffffffffffffffffffffffffffffffffffffffff168473ffffffffffffffffffffffffffffffffffffffff167fddf252ad1be2c89b69c2b068fc378daa952ba7f163c4a11628f55a4df523b3ef60405160405180910390a4505050565b6000806003600084815260200190815260200160002060009054906101000a900473ffffffffffffffffffffffffffffffffffffffff169050600073ffffffffffffffffffffffffffffffffffffffff168173ffffffffffffffffffffffffffffffffffffffff16036107e2576040517f08c379a00000000000000000000000000000000000000000000000000000000081526004016107d9906119c8565b60405180910390fd5b80915050919050565b60008073ffffffffffffffffffffffffffffffffffffffff168273ffffffffffffffffffffffffffffffffffffffff160361085b576040517f08c379a000000000000000000000000000000000000000000000000000000000815260040161085290611a5a565b60405180910390fd5b600460008373ffffffffffffffffffffffffffffffffffffffff1673ffffffffffffffffffffffffffffffffffffffff168152602001908152602001600020549050919050565b600180546108af90611519565b80601f01602080910402602001604051908101604052809291908181526020018280546108db90611519565b80156109285780601f106108fd57610100808354040283529160200191610928565b820191906000526020600020905b81548152906001019060200180831161090b57829003601f168201915b505050505081565b3373ffffffffffffffffffffffffffffffffffffffff168273ffffffffffffffffffffffffffffffffffffffff160361099e576040517f08c379a000000000000000000000000000000000000000000000000000000000815260040161099590611ac6565b60405180910390fd5b80600760003373ffffffffffffffffffffffffffffffffffffffff1673ffffffffffffffffffffffffffffffffffffffff16815260200190815260200160002060008473ffffffffffffffffffffffffffffffffffffffff1673ffffffffffffffffffffffffffffffffffffffff16815260200190815260200160002060006101000a81548160ff0219169083151502179055508173ffffffffffffffffffffffffffffffffffffffff163373ffffffffffffffffffffffffffffffffffffffff167f17307eab39ab6107e8899845ad3d59bd9653f200f220920489ca2b5937696c3183604051610a8f91906114cf565b60405180910390a35050565b6060610aa682610dd9565b610ae5576040517f08c379a0000000000000000000000000000000000000000000000000000000008152600401610adc90611b58565b60405180910390fd5b600560008381526020019081526020016000208054610b0390611519565b80601f0160208091040260200160405190810160405280929190818152602001828054610b2f90611519565b8015610b7c5780601f10610b5157610100808354040283529160200191610b7c565b820191906000526020600020905b815481529060010190602001808311610b5f57829003601f168201915b50505050509050919050565b60008073ffffffffffffffffffffffffffffffffffffffff168373ffffffffffffffffffffffffffffffffffffffff1603610bf8576040517f08c379a0000000000000000000000000000000000000000000000000000000008152600401610bef90611bc4565b60405180910390fd5b6000600254905060026000815480929190610c129061190e565b9190505550600460008573ffffffffffffffffffffffffffffffffffffffff1673ffffffffffffffffffffffffffffffffffffffff1681526020019081526020016000206000815480929190610c679061190e565b9190505550836003600083815260200190815260200160002060006101000a81548173ffffffffffffffffffffffffffffffffffffffff021916908373ffffffffffffffffffffffffffffffffffffffff16021790555082600560008381526020019081526020016000209081610cde9190611d90565b50808473ffffffffffffffffffffffffffffffffffffffff16600073ffffffffffffffffffffffffffffffffffffffff167fddf252ad1be2c89b69c2b068fc378daa952ba7f163c4a11628f55a4df523b3ef60405160405180910390a48091505092915050565b6000600760008473ffffffffffffffffffffffffffffffffffffffff1673ffffffffffffffffffffffffffffffffffffffff16815260200190815260200160002060008373ffffffffffffffffffffffffffffffffffffffff1673ffffffffffffffffffffffffffffffffffffffff16815260200190815260200160002060009054906101000a900460ff16905092915050565b60008073ffffffffffffffffffffffffffffffffffffffff166003600084815260200190815260200160002060009054906101000a900473ffffffffffffffffffffffffffffffffffffffff1673ffffffffffffffffffffffffffffffffffffffff1614159050919050565b816006600083815260200190815260200160002060006101000a81548173ffffffffffffffffffffffffffffffffffffffff021916908373ffffffffffffffffffffffffffffffffffffffff160217905550808273ffffffffffffffffffffffffffffffffffffffff16610eb88361073a565b73ffffffffffffffffffffffffffffffffffffffff167f8c5be1e5ebec7d5bd14f71427d1e84f3dd0314c0f7b2291e5b200ac8c7c3b92560405160405180910390a45050565b6000610f0982610dd9565b610f48576040517f08c379a0000000000000000000000000000000000000000000000000000000008152600401610f3f90611ed4565b60405180910390fd5b6000610f538361073a565b90508073ffffffffffffffffffffffffffffffffffffffff168473ffffffffffffffffffffffffffffffffffffffff161480610fc257508373ffffffffffffffffffffffffffffffffffffffff16610faa846102ec565b73ffffffffffffffffffffffffffffffffffffffff16145b80610fd35750610fd28185610d45565b5b91505092915050565b600081519050919050565b600082825260208201905092915050565b60005b83811015611016578082015181840152602081019050610ffb565b60008484015250505050565b6000601f19601f8301169050919050565b600061103e82610fdc565b6110488185610fe7565b9350611058818560208601610ff8565b61106181611022565b840191505092915050565b600060208201905081810360008301526110868184611033565b905092915050565b6000604051905090565b600080fd5b600080fd5b6000819050919050565b6110b5816110a2565b81146110c057600080fd5b50565b6000813590506110d2816110ac565b92915050565b6000602082840312156110ee576110ed611098565b5b60006110fc848285016110c3565b91505092915050565b600073ffffffffffffffffffffffffffffffffffffffff82169050919050565b600061113082611105565b9050919050565b61114081611125565b82525050565b600060208201905061115b6000830184611137565b92915050565b61116a81611125565b811461117557600080fd5b50565b60008135905061118781611161565b92915050565b600080604083850312156111a4576111a3611098565b5b60006111b285828601611178565b92505060206111c3858286016110c3565b9150509250929050565b6000806000606084860312156111e6576111e5611098565b5b60006111f486828701611178565b935050602061120586828701611178565b9250506040611216868287016110c3565b9150509250925092565b60006020828403121561123657611235611098565b5b600061124484828501611178565b91505092915050565b611256816110a2565b82525050565b6000602082019050611271600083018461124d565b92915050565b60008115159050919050565b61128c81611277565b811461129757600080fd5b50565b6000813590506112a981611283565b92915050565b600080604083850312156112c6576112c5611098565b5b60006112d485828601611178565b92505060206112e58582860161129a565b9150509250929050565b600080fd5b600080fd5b7f4e487b7100000000000000000000000000000000000000000000000000000000600052604160045260246000fd5b61133182611022565b810181811067ffffffffffffffff821117156113505761134f6112f9565b5b80604052505050565b600061136361108e565b905061136f8282611328565b919050565b600067ffffffffffffffff82111561138f5761138e6112f9565b5b61139882611022565b9050602081019050919050565b82818337600083830152505050565b60006113c76113c284611374565b611359565b9050828152602081018484840111156113e3576113e26112f4565b5b6113ee8482856113a5565b509392505050565b600082601f83011261140b5761140a6112ef565b5b813561141b8482602086016113b4565b91505092915050565b6000806040838503121561143b5761143a611098565b5b600061144985828601611178565b925050602083013567ffffffffffffffff81111561146a5761146961109d565b5b611476858286016113f6565b9150509250929050565b6000806040838503121561149757611496611098565b5b60006114a585828601611178565b92505060206114b685828601611178565b9150509250929050565b6114c981611277565b82525050565b60006020820190506114e460008301846114c0565b92915050565b7f4e487b7100000000000000000000000000000000000000000000000000000000600052602260045260246000fd5b6000600282049050600182168061153157607f821691505b602082108103611544576115436114ea565b5b50919050565b7f4552433732313a20617070726f76656420717565727920666f72206e6f6e657860008201527f697374656e7420746f6b656e0000000000000000000000000000000000000000602082015250565b60006115a6602c83610fe7565b91506115b18261154a565b604082019050919050565b600060208201905081810360008301526115d581611599565b9050919050565b7f4552433732313a20617070726f76616c20746f2063757272656e74206f776e6560008201527f7200000000000000000000000000000000000000000000000000000000000000602082015250565b6000611638602183610fe7565b9150611643826115dc565b604082019050919050565b600060208201905081810360008301526116678161162b565b9050919050565b7f4552433732313a20617070726f76652063616c6c6572206973206e6f74206f7760008201527f6e6572206e6f7220617070726f76656420666f7220616c6c0000000000000000602082015250565b60006116ca603883610fe7565b91506116d58261166e565b604082019050919050565b600060208201905081810360008301526116f9816116bd565b9050919050565b7f4552433732313a207472616e736665722063616c6c6572206973206e6f74206f60008201527f776e6572206e6f7220617070726f766564000000000000000000000000000000602082015250565b600061175c603183610fe7565b915061176782611700565b604082019050919050565b6000602082019050818103600083015261178b8161174f565b9050919050565b7f4552433732313a207472616e7366657220746f20746865207a65726f2061646460008201527f7265737300000000000000000000000000000000000000000000000000000000602082015250565b60006117ee602483610fe7565b91506117f982611792565b604082019050919050565b6000602082019050818103600083015261181d816117e1565b9050919050565b7f4552433732313a207472616e73666572206f6620746f6b656e2074686174206960008201527f73206e6f74206f776e6564000000000000000000000000000000000000000000602082015250565b6000611880602b83610fe7565b915061188b82611824565b604082019050919050565b600060208201905081810360008301526118af81611873565b9050919050565b7f4e487b7100000000000000000000000000000000000000000000000000000000600052601160045260246000fd5b60006118f0826110a2565b915060008203611903576119026118b6565b5b600182039050919050565b6000611919826110a2565b91507fffffffffffffffffffffffffffffffffffffffffffffffffffffffffffffffff820361194b5761194a6118b6565b5b600182019050919050565b7f4552433732313a206f776e657220717565727920666f72206e6f6e657869737460008201527f656e7420746f6b656e0000000000000000000000000000000000000000000000602082015250565b60006119b2602983610fe7565b91506119bd82611956565b604082019050919050565b600060208201905081810360008301526119e1816119a5565b9050919050565b7f4552433732313a2061646472657373207a65726f206973206e6f74206120766160008201527f6c6964206f776e65720000000000000000000000000000000000000000000000602082015250565b6000611a44602983610fe7565b9150611a4f826119e8565b604082019050919050565b60006020820190508181036000830152611a7381611a37565b9050919050565b7f4552433732313a20617070726f766520746f2063616c6c657200000000000000600082015250565b6000611ab0601983610fe7565b9150611abb82611a7a565b602082019050919050565b60006020820190508181036000830152611adf81611aa3565b9050919050565b7f4552433732313a2055524920717565727920666f72206e6f6e6578697374656e60008201527f7420746f6b656e00000000000000000000000000000000000000000000000000602082015250565b6000611b42602783610fe7565b9150611b4d82611ae6565b604082019050919050565b60006020820190508181036000830152611b7181611b35565b9050919050565b7f4552433732313a206d696e7420746f20746865207a65726f2061646472657373600082015250565b6000611bae602083610fe7565b9150611bb982611b78565b602082019050919050565b60006020820190508181036000830152611bdd81611ba1565b9050919050565b60008190508160005260206000209050919050565b60006020601f8301049050919050565b600082821b905092915050565b600060088302611c467fffffffffffffffffffffffffffffffffffffffffffffffffffffffffffffffff82611c09565b611c508683611c09565b95508019841693508086168417925050509392505050565b6000819050919050565b6000611c8d611c88611c83846110a2565b611c68565b6110a2565b9050919050565b6000819050919050565b611ca783611c72565b611cbb611cb382611c94565b848454611c16565b825550505050565b600090565b611cd0611cc3565b611cdb818484611c9e565b505050565b5b81811015611cff57611cf4600082611cc8565b600181019050611ce1565b5050565b601f821115611d4457611d1581611be4565b611d1e84611bf9565b81016020851015611d2d578190505b611d41611d3985611bf9565b830182611ce0565b50505b505050565b600082821c905092915050565b6000611d6760001984600802611d49565b1980831691505092915050565b6000611d808383611d56565b9150826002028217905092915050565b611d9982610fdc565b67ffffffffffffffff811115611db257611db16112f9565b5b611dbc8254611519565b611dc7828285611d03565b600060209050601f831160018114611dfa5760008415611de8578287015190505b611df28582611d74565b865550611e5a565b601f198416611e0886611be4565b60005b82811015611e3057848901518255600182019150602085019450602081019050611e0b565b86831015611e4d5784890151611e49601f891682611d56565b8355505b6001600288020188555050505b505050505050565b7f4552433732313a206f70657261746f7220717565727920666f72206e6f6e657860008201527f697374656e7420746f6b656e0000000000000000000000000000000000000000602082015250565b6000611ebe602c83610fe7565b9150611ec982611e62565b604082019050919050565b60006020820190508181036000830152611eed81611eb1565b905091905056fea2646970667358221220476c4874938934b8d60983041b7ecba479edaa560c6903d786c2cc7ce8c7349f64736f6c63430008120033",
  "immutableReferences": {},
  "source": "// SPDX-License-Identifier: MIT\npragma solidity ^0.8.0;\n\n/**\n * @title SimpleNFT\n * @dev Implementazione base di un token non fungibile (NFT) ERC-721\n */\ncontract SimpleNFT {\n    // Variabili di stato\n    string public name;\n    string public symbol;\n    \n    // Contatore per ID token\n    uint256 private _tokenIdCounter;\n    \n    // Mapping da token ID a proprietario\n    mapping(uint256 => address) private _owners;\n    \n    // Mapping da proprietario a numero di token posseduti\n    mapping(address => uint256) private _balances;\n    \n    // Mapping da token ID a URI (metadata)\n    mapping(uint256 => string) private _tokenURIs;\n    \n    // Mapping da token ID a indirizzi approvati per il trasferimento\n    mapping(uint256 => address) private _tokenApprovals;\n    \n    // Mapping da proprietario a operatore a stato di approvazione (per tutti i token)\n    mapping(address => mapping(address => bool)) private _operatorApprovals;\n    \n    // Eventi\n    event Transfer(address indexed from, address indexed to, uint256 indexed tokenId);\n    event Approval(address indexed owner, address indexed approved, uint256 indexed tokenId);\n    event ApprovalForAll(address indexed owner, address indexed operator, bool approved);\n    \n    /**\n     * @dev Costruttore\n     */\n    constructor(string memory _name, string memory _symbol) {\n        name = _name;\n        symbol = _symbol;\n        _tokenIdCounter = 0;\n    }\n    \n    /**\n     * @dev Restituisce il numero di token posseduti da un indirizzo\n     */\n    function balanceOf(address owner) public view returns (uint256) {\n        require(owner != address(0), \"ERC721: address zero is not a valid owner\");\n        return _balances[owner];\n    }\n    \n    /**\n     * @dev Restituisce il proprietario di un token\n     */\n    function ownerOf(uint256 tokenId) public view returns (address) {\n        address owner = _owners[tokenId];\n        require(owner != address(0), \"ERC721: owner query for nonexistent token\");\n        return owner;\n    }\n    \n    /**\n     * @dev Restituisce l'URI dei metadati di un token\n     */\n    function tokenURI(uint256 tokenId) public view returns (string memory) {\n        require(_exists(tokenId), \"ERC721: URI query for nonexistent token\");\n        return _tokenURIs[tokenId];\n    }\n    \n    /**\n     * @dev Verifica se un token esiste\n     */\n    function _exists(uint256 tokenId) internal view returns (bool) {\n        return _owners[tokenId] != address(0);\n    }\n    \n    /**\n     * @dev Conia un nuovo token\n     */\n    function mint(address to, string memory uri) public returns (uint256) {\n        require(to != address(0), \"ERC721: mint to the zero address\");\n        \n        uint256 tokenId = _tokenIdCounter;\n        _tokenIdCounter++;\n        \n        _balances[to]++;\n        _owners[tokenId] = to;\n        _tokenURIs[tokenId] = uri;\n        \n        emit Transfer(address(0), to, tokenId);\n        \n        return tokenId;\n    }\n    \n    /**\n     * @dev Trasferisce un token\n     */\n    function transferFrom(address from, address to, uint256 tokenId) public {\n        require(_isApprovedOrOwner(msg.sender, tokenId), \"ERC721: transfer caller is not owner nor approved\");\n        require(to != address(0), \"ERC721: transfer to the zero address\");\n        require(_owners[tokenId] == from, \"ERC721: transfer of token that is not owned\");\n        \n        // Cancella le approvazioni precedenti\n        _approve(address(0), tokenId);\n        \n        _balances[from]--;\n        _balances[to]++;\n        _owners[tokenId] = to;\n        \n        emit Transfer(from, to, tokenId);\n    }\n    \n    /**\n     * @dev Approva un indirizzo a trasferire un token specifico\n     */\n    function approve(address to, uint256 tokenId) public {\n        address owner = ownerOf(tokenId);\n        require(to != owner, \"ERC721: approval to current owner\");\n        require(msg.sender == owner || isApprovedForAll(owner, msg.sender),\n            \"ERC721: approve caller is not owner nor approved for all\");\n            \n        _approve(to, tokenId);\n    }\n    \n    /**\n     * @dev Ottiene l'indirizzo approvato per un token\n     */\n    function getApproved(uint256 tokenId) public view returns (address) {\n        require(_exists(tokenId), \"ERC721: approved query for nonexistent token\");\n        return _tokenApprovals[tokenId];\n    }\n    \n    /**\n     * @dev Imposta o rimuove l'approvazione per un operatore\n     */\n    function setApprovalForAll(address operator, bool approved) public {\n        require(operator != msg.sender, \"ERC721: approve to caller\");\n        _operatorApprovals[msg.sender][operator] = approved;\n        emit ApprovalForAll(msg.sender, operator, approved);\n    }\n    \n    /**\n     * @dev Verifica se un indirizzo  un operatore approvato per un proprietario\n     */\n    function isApprovedForAll(address owner, address operator) public view returns (bool) {\n        return _operatorApprovals[owner][operator];\n    }\n    \n    /**\n     * @dev Funzione interna per approvare un indirizzo\n     */\n    function _approve(address to, uint256 tokenId) internal {\n        _tokenApprovals[tokenId] = to;\n        emit Approval(ownerOf(tokenId), to, tokenId);\n    }\n    \n    /**\n     * @dev Verifica se il mittente  proprietario o approvato\n     */\n    function _isApprovedOrOwner(address spender, uint256 tokenId) internal view returns (bool) {\n        require(_exists(tokenId), \"ERC721: operator query for nonexistent token\");\n        address owner = ownerOf(tokenId);\n        return (spender == owner || getApproved(tokenId) == spender || isApprovedForAll(owner, spender));\n    }\n}",
  "sourcePath": "/mnt/Dati/Workspace/BlockChainExamples/SoliditySmartContract04NFT/contracts/nft.sol",
  "compiler": {
    "name": "solc",
    "version": "0.8.18+commit.87f61d96.Emscripten.clang"
  },
  "schemaVersion": "3.4.16",
  "updatedAt": "2025-03-15T16:37:48.080Z",
  "networkType": "ethereum",
  "devdoc": {
    "details": "Implementazione base di un token non fungibile (NFT) ERC-721",
    "kind": "dev",
    "methods": {
      "approve(address,uint256)": {
        "details": "Approva un indirizzo a trasferire un token specifico"
      },
      "balanceOf(address)": {
        "details": "Restituisce il numero di token posseduti da un indirizzo"
      },
      "constructor": {
        "details": "Costruttore"
      },
      "getApproved(uint256)": {
        "details": "Ottiene l'indirizzo approvato per un token"
      },
      "isApprovedForAll(address,address)": {
        "details": "Verifica se un indirizzo  un operatore approvato per un proprietario"
      },
      "mint(address,string)": {
        "details": "Conia un nuovo token"
      },
      "ownerOf(uint256)": {
        "details": "Restituisce il proprietario di un token"
      },
      "setApprovalForAll(address,bool)": {
        "details": "Imposta o rimuove l'approvazione per un operatore"
      },
      "tokenURI(uint256)": {
        "details": "Restituisce l'URI dei metadati di un token"
      },
      "transferFrom(address,address,uint256)": {
        "details": "Trasferisce un token"
      }
    },
    "title": "SimpleNFT",
    "version": 1
  },
  "userdoc": {
    "kind": "user",
    "methods": {},
    "version": 1
  }
}